{
  "contractName": "EIP712Whitelisting",
  "abi": [
    {
      "inputs": [],
      "stateMutability": "nonpayable",
      "type": "constructor"
    },
    {
      "anonymous": false,
      "inputs": [
        {
          "indexed": true,
          "internalType": "address",
          "name": "previousOwner",
          "type": "address"
        },
        {
          "indexed": true,
          "internalType": "address",
          "name": "newOwner",
          "type": "address"
        }
      ],
      "name": "OwnershipTransferred",
      "type": "event"
    },
    {
      "inputs": [],
      "name": "DOMAIN_SEPARATOR",
      "outputs": [
        {
          "internalType": "bytes32",
          "name": "",
          "type": "bytes32"
        }
      ],
      "stateMutability": "view",
      "type": "function"
    },
    {
      "inputs": [],
      "name": "MINTER_TYPEHASH",
      "outputs": [
        {
          "internalType": "bytes32",
          "name": "",
          "type": "bytes32"
        }
      ],
      "stateMutability": "view",
      "type": "function"
    },
    {
      "inputs": [],
      "name": "owner",
      "outputs": [
        {
          "internalType": "address",
          "name": "",
          "type": "address"
        }
      ],
      "stateMutability": "view",
      "type": "function"
    },
    {
      "inputs": [],
      "name": "renounceOwnership",
      "outputs": [],
      "stateMutability": "nonpayable",
      "type": "function"
    },
    {
      "inputs": [
        {
          "internalType": "address",
          "name": "newOwner",
          "type": "address"
        }
      ],
      "name": "transferOwnership",
      "outputs": [],
      "stateMutability": "nonpayable",
      "type": "function"
    },
    {
      "inputs": [
        {
          "internalType": "address",
          "name": "newSigningKey",
          "type": "address"
        }
      ],
      "name": "setWhitelistSigningAddress",
      "outputs": [],
      "stateMutability": "nonpayable",
      "type": "function"
    }
  ],
  "bytecode": "0x60806040526000600160006101000a81548173ffffffffffffffffffffffffffffffffffffffff021916908373ffffffffffffffffffffffffffffffffffffffff16021790555034801561005257600080fd5b5061006f61006461014160201b60201c565b61014960201b60201c565b7f8b73c3c69bb8fe3d512ecc4cf759cc79239f7b179b0ffacaa9a75d522b39400f6040518060400160405280600e81526020017f57686974656c697374546f6b656e000000000000000000000000000000000000815250805190602001206040518060400160405280600181526020017f3100000000000000000000000000000000000000000000000000000000000000815250805190602001204630604051602001610120959493929190610280565b604051602081830303815290604052805190602001206002819055506102d3565b600033905090565b60008060009054906101000a900473ffffffffffffffffffffffffffffffffffffffff169050816000806101000a81548173ffffffffffffffffffffffffffffffffffffffff021916908373ffffffffffffffffffffffffffffffffffffffff1602179055508173ffffffffffffffffffffffffffffffffffffffff168173ffffffffffffffffffffffffffffffffffffffff167f8be0079c531659141344cd1fd0a4f28419497f9722a3daafe3b4186f6b6457e060405160405180910390a35050565b6000819050919050565b6102208161020d565b82525050565b6000819050919050565b61023981610226565b82525050565b600073ffffffffffffffffffffffffffffffffffffffff82169050919050565b600061026a8261023f565b9050919050565b61027a8161025f565b82525050565b600060a0820190506102956000830188610217565b6102a26020830187610217565b6102af6040830186610217565b6102bc6060830185610230565b6102c96080830184610271565b9695505050505050565b610695806102e26000396000f3fe608060405234801561001057600080fd5b50600436106100625760003560e01c80633644e51514610067578063715018a6146100855780638da5cb5b1461008f578063cd770833146100ad578063f2fde38b146100c9578063fa4d280c146100e5575b600080fd5b61006f610103565b60405161007c919061047b565b60405180910390f35b61008d610109565b005b610097610191565b6040516100a491906104d7565b60405180910390f35b6100c760048036038101906100c29190610523565b6101ba565b005b6100e360048036038101906100de9190610523565b61027a565b005b6100ed610372565b6040516100fa919061047b565b60405180910390f35b60025481565b610111610396565b73ffffffffffffffffffffffffffffffffffffffff1661012f610191565b73ffffffffffffffffffffffffffffffffffffffff1614610185576040517f08c379a000000000000000000000000000000000000000000000000000000000815260040161017c906105ad565b60405180910390fd5b61018f600061039e565b565b60008060009054906101000a900473ffffffffffffffffffffffffffffffffffffffff16905090565b6101c2610396565b73ffffffffffffffffffffffffffffffffffffffff166101e0610191565b73ffffffffffffffffffffffffffffffffffffffff1614610236576040517f08c379a000000000000000000000000000000000000000000000000000000000815260040161022d906105ad565b60405180910390fd5b80600160006101000a81548173ffffffffffffffffffffffffffffffffffffffff021916908373ffffffffffffffffffffffffffffffffffffffff16021790555050565b610282610396565b73ffffffffffffffffffffffffffffffffffffffff166102a0610191565b73ffffffffffffffffffffffffffffffffffffffff16146102f6576040517f08c379a00000000000000000000000000000000000000000000000000000000081526004016102ed906105ad565b60405180910390fd5b600073ffffffffffffffffffffffffffffffffffffffff168173ffffffffffffffffffffffffffffffffffffffff161415610366576040517f08c379a000000000000000000000000000000000000000000000000000000000815260040161035d9061063f565b60405180910390fd5b61036f8161039e565b50565b7f68e83002b91b0fd96d4df3566b5122221117e3ec6c2468fda594f6491f89b1c981565b600033905090565b60008060009054906101000a900473ffffffffffffffffffffffffffffffffffffffff169050816000806101000a81548173ffffffffffffffffffffffffffffffffffffffff021916908373ffffffffffffffffffffffffffffffffffffffff1602179055508173ffffffffffffffffffffffffffffffffffffffff168173ffffffffffffffffffffffffffffffffffffffff167f8be0079c531659141344cd1fd0a4f28419497f9722a3daafe3b4186f6b6457e060405160405180910390a35050565b6000819050919050565b61047581610462565b82525050565b6000602082019050610490600083018461046c565b92915050565b600073ffffffffffffffffffffffffffffffffffffffff82169050919050565b60006104c182610496565b9050919050565b6104d1816104b6565b82525050565b60006020820190506104ec60008301846104c8565b92915050565b600080fd5b610500816104b6565b811461050b57600080fd5b50565b60008135905061051d816104f7565b92915050565b600060208284031215610539576105386104f2565b5b60006105478482850161050e565b91505092915050565b600082825260208201905092915050565b7f4f776e61626c653a2063616c6c6572206973206e6f7420746865206f776e6572600082015250565b6000610597602083610550565b91506105a282610561565b602082019050919050565b600060208201905081810360008301526105c68161058a565b9050919050565b7f4f776e61626c653a206e6577206f776e657220697320746865207a65726f206160008201527f6464726573730000000000000000000000000000000000000000000000000000602082015250565b6000610629602683610550565b9150610634826105cd565b604082019050919050565b600060208201905081810360008301526106588161061c565b905091905056fea264697066735822122083638b8a4974485ee28ee77d42fcc2a71be02362ac6855018c667880d8f00a8b64736f6c634300080a0033",
  "immutableReferences": {},
  "source": "//SPDX-License-Identifier: Unlicense\npragma solidity ^0.8.0;\n\nimport \"@openzeppelin/contracts/utils/cryptography/ECDSA.sol\";\nimport \"@openzeppelin/contracts/access/Ownable.sol\";\n\ncontract EIP712Whitelisting is Ownable {\n    using ECDSA for bytes32;\n\n    // The key used to sign whitelist signatures.\n    // We will check to ensure that the key that signed the signature\n    // is this one that we expect.\n    address whitelistSigningKey = address(0);\n\n    // Domain Separator is the EIP-712 defined structure that defines what contract\n    // and chain these signatures can be used for.  This ensures people can't take\n    // a signature used to mint on one contract and use it for another, or a signature\n    // from testnet to replay on mainnet.\n    // It has to be created in the constructor so we can dynamically grab the chainId.\n    // https://github.com/ethereum/EIPs/blob/master/EIPS/eip-712.md#definition-of-domainseparator\n    bytes32 public DOMAIN_SEPARATOR;\n\n    // The typehash for the data type specified in the structured data\n    // https://github.com/ethereum/EIPs/blob/master/EIPS/eip-712.md#rationale-for-typehash\n    // This should match whats in the client side whitelist signing code\n    // https://github.com/msfeldstein/EIP712-whitelisting/blob/main/test/signWhitelist.ts#L22\n    bytes32 public constant MINTER_TYPEHASH =\n        keccak256(\"Minter(address wallet)\");\n\n    constructor() {\n        // This should match whats in the client side whitelist signing code\n        // https://github.com/msfeldstein/EIP712-whitelisting/blob/main/test/signWhitelist.ts#L12\n        DOMAIN_SEPARATOR = keccak256(\n            abi.encode(\n                keccak256(\n                    \"EIP712Domain(string name,string version,uint256 chainId,address verifyingContract)\"\n                ),\n                // This should match the domain you set in your client side signing.\n                keccak256(bytes(\"WhitelistToken\")),\n                keccak256(bytes(\"1\")),\n                block.chainid,\n                address(this)\n            )\n        );\n    }\n\n    function setWhitelistSigningAddress(address newSigningKey) public onlyOwner {\n        whitelistSigningKey = newSigningKey;\n    }\n\n    modifier requiresWhitelist(bytes calldata signature) {\n        require(whitelistSigningKey != address(0), \"whitelist not enabled\");\n        // Verify EIP-712 signature by recreating the data structure\n        // that we signed on the client side, and then using that to recover\n        // the address that signed the signature for this data.\n        bytes32 digest = keccak256(\n            abi.encodePacked(\n                \"\\x19\\x01\",\n                DOMAIN_SEPARATOR,\n                keccak256(abi.encode(MINTER_TYPEHASH, msg.sender))\n            )\n        );\n        // Use the recover method to see what address was used to create\n        // the signature on this data.\n        // Note that if the digest doesn't exactly match what was signed we'll\n        // get a random recovered address.\n        address recoveredAddress = digest.recover(signature);\n        require(recoveredAddress == whitelistSigningKey, \"Invalid Signature\");\n        _;\n    }\n}",
  "sourcePath": "/media/cagiri/Files/Development/Workspaces/remix-workspace/eventdao/contracts/EIP712Whitelisting.sol",
  "compiler": {
    "name": "solc",
    "version": "0.8.10+commit.fc410830.Emscripten.clang"
  },
  "schemaVersion": "3.4.3",
  "updatedAt": "2022-03-13T18:10:22.916Z",
  "devdoc": {
    "kind": "dev",
    "methods": {
      "owner()": {
        "details": "Returns the address of the current owner."
      },
      "renounceOwnership()": {
        "details": "Leaves the contract without owner. It will not be possible to call `onlyOwner` functions anymore. Can only be called by the current owner. NOTE: Renouncing ownership will leave the contract without an owner, thereby removing any functionality that is only available to the owner."
      },
      "transferOwnership(address)": {
        "details": "Transfers ownership of the contract to a new account (`newOwner`). Can only be called by the current owner."
      }
    },
    "version": 1
  },
  "userdoc": {
    "kind": "user",
    "methods": {},
    "version": 1
  }
}