{
  "contractName": "EventDAO",
  "abi": [
    {
      "inputs": [
        {
          "internalType": "string",
          "name": "tokenName",
          "type": "string"
        },
        {
          "internalType": "string",
          "name": "tokenSymbol",
          "type": "string"
        },
        {
          "internalType": "string",
          "name": "customBaseURI_",
          "type": "string"
        },
        {
          "internalType": "address[]",
          "name": "payees",
          "type": "address[]"
        },
        {
          "internalType": "uint256[]",
          "name": "shares",
          "type": "uint256[]"
        },
        {
          "internalType": "uint256",
          "name": "passCardPrice",
          "type": "uint256"
        },
        {
          "internalType": "uint256",
          "name": "vipCardPrice",
          "type": "uint256"
        }
      ],
      "stateMutability": "nonpayable",
      "type": "constructor"
    },
    {
      "anonymous": false,
      "inputs": [
        {
          "indexed": true,
          "internalType": "address",
          "name": "owner",
          "type": "address"
        },
        {
          "indexed": true,
          "internalType": "address",
          "name": "approved",
          "type": "address"
        },
        {
          "indexed": true,
          "internalType": "uint256",
          "name": "tokenId",
          "type": "uint256"
        }
      ],
      "name": "Approval",
      "type": "event"
    },
    {
      "anonymous": false,
      "inputs": [
        {
          "indexed": true,
          "internalType": "address",
          "name": "owner",
          "type": "address"
        },
        {
          "indexed": true,
          "internalType": "address",
          "name": "operator",
          "type": "address"
        },
        {
          "indexed": false,
          "internalType": "bool",
          "name": "approved",
          "type": "bool"
        }
      ],
      "name": "ApprovalForAll",
      "type": "event"
    },
    {
      "anonymous": false,
      "inputs": [
        {
          "indexed": true,
          "internalType": "address",
          "name": "previousOwner",
          "type": "address"
        },
        {
          "indexed": true,
          "internalType": "address",
          "name": "newOwner",
          "type": "address"
        }
      ],
      "name": "OwnershipTransferred",
      "type": "event"
    },
    {
      "anonymous": false,
      "inputs": [
        {
          "indexed": true,
          "internalType": "address",
          "name": "from",
          "type": "address"
        },
        {
          "indexed": true,
          "internalType": "address",
          "name": "to",
          "type": "address"
        },
        {
          "indexed": true,
          "internalType": "uint256",
          "name": "tokenId",
          "type": "uint256"
        }
      ],
      "name": "Transfer",
      "type": "event"
    },
    {
      "inputs": [],
      "name": "DOMAIN_SEPARATOR",
      "outputs": [
        {
          "internalType": "bytes32",
          "name": "",
          "type": "bytes32"
        }
      ],
      "stateMutability": "view",
      "type": "function"
    },
    {
      "inputs": [],
      "name": "MAX_MULTIMINT",
      "outputs": [
        {
          "internalType": "uint256",
          "name": "",
          "type": "uint256"
        }
      ],
      "stateMutability": "view",
      "type": "function"
    },
    {
      "inputs": [],
      "name": "MAX_PASS_CARD_PER_WALLET",
      "outputs": [
        {
          "internalType": "uint256",
          "name": "",
          "type": "uint256"
        }
      ],
      "stateMutability": "view",
      "type": "function"
    },
    {
      "inputs": [],
      "name": "MAX_PASS_CARD_RESERVED_SUPPLY",
      "outputs": [
        {
          "internalType": "uint256",
          "name": "",
          "type": "uint256"
        }
      ],
      "stateMutability": "view",
      "type": "function"
    },
    {
      "inputs": [],
      "name": "MAX_PASS_CARD_SUPPLY",
      "outputs": [
        {
          "internalType": "uint256",
          "name": "",
          "type": "uint256"
        }
      ],
      "stateMutability": "view",
      "type": "function"
    },
    {
      "inputs": [],
      "name": "MAX_PASS_CARD_WHITELIST_SUPPLY",
      "outputs": [
        {
          "internalType": "uint256",
          "name": "",
          "type": "uint256"
        }
      ],
      "stateMutability": "view",
      "type": "function"
    },
    {
      "inputs": [],
      "name": "MAX_SUPPLY",
      "outputs": [
        {
          "internalType": "uint256",
          "name": "",
          "type": "uint256"
        }
      ],
      "stateMutability": "view",
      "type": "function"
    },
    {
      "inputs": [],
      "name": "MAX_VIP_CARD_PER_WALLET",
      "outputs": [
        {
          "internalType": "uint256",
          "name": "",
          "type": "uint256"
        }
      ],
      "stateMutability": "view",
      "type": "function"
    },
    {
      "inputs": [],
      "name": "MAX_VIP_CARD_RESERVED_SUPPLY",
      "outputs": [
        {
          "internalType": "uint256",
          "name": "",
          "type": "uint256"
        }
      ],
      "stateMutability": "view",
      "type": "function"
    },
    {
      "inputs": [],
      "name": "MAX_VIP_CARD_SUPPLY",
      "outputs": [
        {
          "internalType": "uint256",
          "name": "",
          "type": "uint256"
        }
      ],
      "stateMutability": "view",
      "type": "function"
    },
    {
      "inputs": [],
      "name": "MAX_VIP_CARD_WHITELIST_SUPPLY",
      "outputs": [
        {
          "internalType": "uint256",
          "name": "",
          "type": "uint256"
        }
      ],
      "stateMutability": "view",
      "type": "function"
    },
    {
      "inputs": [],
      "name": "MINTER_TYPEHASH",
      "outputs": [
        {
          "internalType": "bytes32",
          "name": "",
          "type": "bytes32"
        }
      ],
      "stateMutability": "view",
      "type": "function"
    },
    {
      "inputs": [],
      "name": "PASS_CARD_PRICE",
      "outputs": [
        {
          "internalType": "uint256",
          "name": "",
          "type": "uint256"
        }
      ],
      "stateMutability": "view",
      "type": "function"
    },
    {
      "inputs": [],
      "name": "VIP_CARD_PRICE",
      "outputs": [
        {
          "internalType": "uint256",
          "name": "",
          "type": "uint256"
        }
      ],
      "stateMutability": "view",
      "type": "function"
    },
    {
      "inputs": [
        {
          "internalType": "address",
          "name": "to",
          "type": "address"
        },
        {
          "internalType": "uint256",
          "name": "tokenId",
          "type": "uint256"
        }
      ],
      "name": "approve",
      "outputs": [],
      "stateMutability": "nonpayable",
      "type": "function"
    },
    {
      "inputs": [
        {
          "internalType": "address",
          "name": "owner",
          "type": "address"
        }
      ],
      "name": "balanceOf",
      "outputs": [
        {
          "internalType": "uint256",
          "name": "",
          "type": "uint256"
        }
      ],
      "stateMutability": "view",
      "type": "function"
    },
    {
      "inputs": [
        {
          "internalType": "uint256",
          "name": "tokenId",
          "type": "uint256"
        }
      ],
      "name": "getApproved",
      "outputs": [
        {
          "internalType": "address",
          "name": "",
          "type": "address"
        }
      ],
      "stateMutability": "view",
      "type": "function"
    },
    {
      "inputs": [
        {
          "internalType": "address",
          "name": "owner",
          "type": "address"
        },
        {
          "internalType": "address",
          "name": "operator",
          "type": "address"
        }
      ],
      "name": "isApprovedForAll",
      "outputs": [
        {
          "internalType": "bool",
          "name": "",
          "type": "bool"
        }
      ],
      "stateMutability": "view",
      "type": "function"
    },
    {
      "inputs": [],
      "name": "name",
      "outputs": [
        {
          "internalType": "string",
          "name": "",
          "type": "string"
        }
      ],
      "stateMutability": "view",
      "type": "function"
    },
    {
      "inputs": [],
      "name": "owner",
      "outputs": [
        {
          "internalType": "address",
          "name": "",
          "type": "address"
        }
      ],
      "stateMutability": "view",
      "type": "function"
    },
    {
      "inputs": [
        {
          "internalType": "uint256",
          "name": "tokenId",
          "type": "uint256"
        }
      ],
      "name": "ownerOf",
      "outputs": [
        {
          "internalType": "address",
          "name": "",
          "type": "address"
        }
      ],
      "stateMutability": "view",
      "type": "function"
    },
    {
      "inputs": [],
      "name": "renounceOwnership",
      "outputs": [],
      "stateMutability": "nonpayable",
      "type": "function"
    },
    {
      "inputs": [
        {
          "internalType": "address",
          "name": "from",
          "type": "address"
        },
        {
          "internalType": "address",
          "name": "to",
          "type": "address"
        },
        {
          "internalType": "uint256",
          "name": "tokenId",
          "type": "uint256"
        }
      ],
      "name": "safeTransferFrom",
      "outputs": [],
      "stateMutability": "nonpayable",
      "type": "function"
    },
    {
      "inputs": [
        {
          "internalType": "address",
          "name": "from",
          "type": "address"
        },
        {
          "internalType": "address",
          "name": "to",
          "type": "address"
        },
        {
          "internalType": "uint256",
          "name": "tokenId",
          "type": "uint256"
        },
        {
          "internalType": "bytes",
          "name": "_data",
          "type": "bytes"
        }
      ],
      "name": "safeTransferFrom",
      "outputs": [],
      "stateMutability": "nonpayable",
      "type": "function"
    },
    {
      "inputs": [],
      "name": "saleIsActive",
      "outputs": [
        {
          "internalType": "bool",
          "name": "",
          "type": "bool"
        }
      ],
      "stateMutability": "view",
      "type": "function"
    },
    {
      "inputs": [
        {
          "internalType": "address",
          "name": "operator",
          "type": "address"
        },
        {
          "internalType": "bool",
          "name": "approved",
          "type": "bool"
        }
      ],
      "name": "setApprovalForAll",
      "outputs": [],
      "stateMutability": "nonpayable",
      "type": "function"
    },
    {
      "inputs": [
        {
          "internalType": "address",
          "name": "newSigningKey",
          "type": "address"
        }
      ],
      "name": "setWhitelistSigningAddress",
      "outputs": [],
      "stateMutability": "nonpayable",
      "type": "function"
    },
    {
      "inputs": [
        {
          "internalType": "bytes4",
          "name": "interfaceId",
          "type": "bytes4"
        }
      ],
      "name": "supportsInterface",
      "outputs": [
        {
          "internalType": "bool",
          "name": "",
          "type": "bool"
        }
      ],
      "stateMutability": "view",
      "type": "function"
    },
    {
      "inputs": [],
      "name": "symbol",
      "outputs": [
        {
          "internalType": "string",
          "name": "",
          "type": "string"
        }
      ],
      "stateMutability": "view",
      "type": "function"
    },
    {
      "inputs": [
        {
          "internalType": "uint256",
          "name": "tokenId",
          "type": "uint256"
        }
      ],
      "name": "tokenURI",
      "outputs": [
        {
          "internalType": "string",
          "name": "",
          "type": "string"
        }
      ],
      "stateMutability": "view",
      "type": "function"
    },
    {
      "inputs": [
        {
          "internalType": "address",
          "name": "from",
          "type": "address"
        },
        {
          "internalType": "address",
          "name": "to",
          "type": "address"
        },
        {
          "internalType": "uint256",
          "name": "tokenId",
          "type": "uint256"
        }
      ],
      "name": "transferFrom",
      "outputs": [],
      "stateMutability": "nonpayable",
      "type": "function"
    },
    {
      "inputs": [
        {
          "internalType": "address",
          "name": "newOwner",
          "type": "address"
        }
      ],
      "name": "transferOwnership",
      "outputs": [],
      "stateMutability": "nonpayable",
      "type": "function"
    },
    {
      "inputs": [],
      "name": "whitelistSaleIsActive",
      "outputs": [
        {
          "internalType": "bool",
          "name": "",
          "type": "bool"
        }
      ],
      "stateMutability": "view",
      "type": "function"
    },
    {
      "inputs": [],
      "name": "flipSaleState",
      "outputs": [],
      "stateMutability": "nonpayable",
      "type": "function"
    },
    {
      "inputs": [],
      "name": "flipWhitelistSaleState",
      "outputs": [],
      "stateMutability": "nonpayable",
      "type": "function"
    },
    {
      "inputs": [
        {
          "internalType": "uint256",
          "name": "price",
          "type": "uint256"
        }
      ],
      "name": "setPassCardPrice",
      "outputs": [],
      "stateMutability": "nonpayable",
      "type": "function"
    },
    {
      "inputs": [
        {
          "internalType": "uint256",
          "name": "price",
          "type": "uint256"
        }
      ],
      "name": "setVipCardPrice",
      "outputs": [],
      "stateMutability": "nonpayable",
      "type": "function"
    },
    {
      "inputs": [
        {
          "internalType": "uint256",
          "name": "maxPerWallet",
          "type": "uint256"
        }
      ],
      "name": "setVipCardLimitPerWallet",
      "outputs": [],
      "stateMutability": "nonpayable",
      "type": "function"
    },
    {
      "inputs": [
        {
          "internalType": "uint256",
          "name": "maxPerWallet",
          "type": "uint256"
        }
      ],
      "name": "setPassCardLimitPerWallet",
      "outputs": [],
      "stateMutability": "nonpayable",
      "type": "function"
    },
    {
      "inputs": [
        {
          "internalType": "uint256",
          "name": "maxMultiMint",
          "type": "uint256"
        }
      ],
      "name": "setMultiMint",
      "outputs": [],
      "stateMutability": "nonpayable",
      "type": "function"
    },
    {
      "inputs": [
        {
          "internalType": "uint256",
          "name": "maxSupply",
          "type": "uint256"
        }
      ],
      "name": "setMaxPassCardWhitelistSupply",
      "outputs": [],
      "stateMutability": "nonpayable",
      "type": "function"
    },
    {
      "inputs": [
        {
          "internalType": "uint256",
          "name": "maxSupply",
          "type": "uint256"
        }
      ],
      "name": "setMaxVipCardWhitelistSupply",
      "outputs": [],
      "stateMutability": "nonpayable",
      "type": "function"
    },
    {
      "inputs": [
        {
          "internalType": "address",
          "name": "minter",
          "type": "address"
        }
      ],
      "name": "allowedPassCardMintCount",
      "outputs": [
        {
          "internalType": "uint256",
          "name": "",
          "type": "uint256"
        }
      ],
      "stateMutability": "view",
      "type": "function"
    },
    {
      "inputs": [
        {
          "internalType": "address",
          "name": "minter",
          "type": "address"
        }
      ],
      "name": "allowedVipCardMintCount",
      "outputs": [
        {
          "internalType": "uint256",
          "name": "",
          "type": "uint256"
        }
      ],
      "stateMutability": "view",
      "type": "function"
    },
    {
      "inputs": [],
      "name": "totalPassCardSupply",
      "outputs": [
        {
          "internalType": "uint256",
          "name": "",
          "type": "uint256"
        }
      ],
      "stateMutability": "view",
      "type": "function"
    },
    {
      "inputs": [],
      "name": "totalPassCardReservedSupply",
      "outputs": [
        {
          "internalType": "uint256",
          "name": "",
          "type": "uint256"
        }
      ],
      "stateMutability": "view",
      "type": "function"
    },
    {
      "inputs": [],
      "name": "totalVipCardSupply",
      "outputs": [
        {
          "internalType": "uint256",
          "name": "",
          "type": "uint256"
        }
      ],
      "stateMutability": "view",
      "type": "function"
    },
    {
      "inputs": [],
      "name": "totalVipCardReservedSupply",
      "outputs": [
        {
          "internalType": "uint256",
          "name": "",
          "type": "uint256"
        }
      ],
      "stateMutability": "view",
      "type": "function"
    },
    {
      "inputs": [],
      "name": "totalPassCardWhitelistMints",
      "outputs": [
        {
          "internalType": "uint256",
          "name": "",
          "type": "uint256"
        }
      ],
      "stateMutability": "view",
      "type": "function"
    },
    {
      "inputs": [],
      "name": "totalVipCardWhitelistMints",
      "outputs": [
        {
          "internalType": "uint256",
          "name": "",
          "type": "uint256"
        }
      ],
      "stateMutability": "view",
      "type": "function"
    },
    {
      "inputs": [
        {
          "internalType": "uint256",
          "name": "count",
          "type": "uint256"
        }
      ],
      "name": "mintPassCard",
      "outputs": [],
      "stateMutability": "payable",
      "type": "function"
    },
    {
      "inputs": [
        {
          "internalType": "uint256",
          "name": "count",
          "type": "uint256"
        }
      ],
      "name": "mintVipCard",
      "outputs": [],
      "stateMutability": "payable",
      "type": "function"
    },
    {
      "inputs": [
        {
          "internalType": "uint256",
          "name": "count",
          "type": "uint256"
        }
      ],
      "name": "mintPassCardReserved",
      "outputs": [],
      "stateMutability": "nonpayable",
      "type": "function"
    },
    {
      "inputs": [
        {
          "internalType": "uint256",
          "name": "count",
          "type": "uint256"
        },
        {
          "internalType": "address",
          "name": "account",
          "type": "address"
        }
      ],
      "name": "mintPassCardReservedToAddress",
      "outputs": [],
      "stateMutability": "nonpayable",
      "type": "function"
    },
    {
      "inputs": [
        {
          "internalType": "uint256",
          "name": "count",
          "type": "uint256"
        }
      ],
      "name": "mintVipCardReserved",
      "outputs": [],
      "stateMutability": "nonpayable",
      "type": "function"
    },
    {
      "inputs": [
        {
          "internalType": "uint256",
          "name": "count",
          "type": "uint256"
        },
        {
          "internalType": "address",
          "name": "account",
          "type": "address"
        }
      ],
      "name": "mintVipCardReservedToAddress",
      "outputs": [],
      "stateMutability": "nonpayable",
      "type": "function"
    },
    {
      "inputs": [
        {
          "internalType": "uint256",
          "name": "count",
          "type": "uint256"
        },
        {
          "internalType": "bytes",
          "name": "signature",
          "type": "bytes"
        }
      ],
      "name": "mintPassCardWhitelist",
      "outputs": [],
      "stateMutability": "payable",
      "type": "function"
    },
    {
      "inputs": [
        {
          "internalType": "uint256",
          "name": "count",
          "type": "uint256"
        },
        {
          "internalType": "bytes",
          "name": "signature",
          "type": "bytes"
        }
      ],
      "name": "mintVipCardWhitelist",
      "outputs": [],
      "stateMutability": "payable",
      "type": "function"
    },
    {
      "inputs": [
        {
          "internalType": "bytes",
          "name": "signature",
          "type": "bytes"
        }
      ],
      "name": "checkWhitelist",
      "outputs": [
        {
          "internalType": "bool",
          "name": "",
          "type": "bool"
        }
      ],
      "stateMutability": "view",
      "type": "function"
    },
    {
      "inputs": [],
      "name": "baseTokenURI",
      "outputs": [
        {
          "internalType": "string",
          "name": "",
          "type": "string"
        }
      ],
      "stateMutability": "view",
      "type": "function"
    },
    {
      "inputs": [
        {
          "internalType": "string",
          "name": "customBaseURI_",
          "type": "string"
        }
      ],
      "name": "setBaseURI",
      "outputs": [],
      "stateMutability": "nonpayable",
      "type": "function"
    },
    {
      "inputs": [
        {
          "internalType": "address payable",
          "name": "account",
          "type": "address"
        }
      ],
      "name": "release",
      "outputs": [],
      "stateMutability": "nonpayable",
      "type": "function"
    }
  ],
  "bytecode": "0x60806040526000600860006101000a81548173ffffffffffffffffffffffffffffffffffffffff021916908373ffffffffffffffffffffffffffffffffffffffff1602179055506000601660146101000a81548160ff0219169083151502179055506001601660156101000a81548160ff0219169083151502179055503480156200008957600080fd5b50604051620096d9380380620096d98339818101604052810190620000af919062000868565b86868160009080519060200190620000c9929190620003bc565b508060019080519060200190620000e2929190620003bc565b50505060016006819055506200010d62000101620002ee60201b60201c565b620002f660201b60201c565b7f8b73c3c69bb8fe3d512ecc4cf759cc79239f7b179b0ffacaa9a75d522b39400f6040518060400160405280600e81526020017f57686974656c697374546f6b656e000000000000000000000000000000000000815250805190602001206040518060400160405280600181526020017f3100000000000000000000000000000000000000000000000000000000000000815250805190602001204630604051602001620001c0959493929190620009f3565b6040516020818303038152906040528051906020012060098190555084601f9080519060200190620001f4929190620003bc565b50838360405162000205906200044d565b6200021292919062000bec565b604051809103906000f0801580156200022f573d6000803e3d6000fd5b50601660006101000a81548173ffffffffffffffffffffffffffffffffffffffff021916908373ffffffffffffffffffffffffffffffffffffffff16021790555081600d8190555080600c819055506001600b819055506002600a819055506003601381905550612710600e819055506064600f819055506103e8601181905550600a601281905550600f54600e54620002ca919062000c56565b601081905550612328601481905550605a6015819055505050505050505062000d18565b600033905090565b6000600760009054906101000a900473ffffffffffffffffffffffffffffffffffffffff16905081600760006101000a81548173ffffffffffffffffffffffffffffffffffffffff021916908373ffffffffffffffffffffffffffffffffffffffff1602179055508173ffffffffffffffffffffffffffffffffffffffff168173ffffffffffffffffffffffffffffffffffffffff167f8be0079c531659141344cd1fd0a4f28419497f9722a3daafe3b4186f6b6457e060405160405180910390a35050565b828054620003ca9062000ce2565b90600052602060002090601f016020900481019282620003ee57600085556200043a565b82601f106200040957805160ff19168380011785556200043a565b828001600101855582156200043a579182015b82811115620004395782518255916020019190600101906200041c565b5b5090506200044991906200045b565b5090565b6122e280620073f783390190565b5b80821115620004765760008160009055506001016200045c565b5090565b6000604051905090565b600080fd5b600080fd5b600080fd5b600080fd5b6000601f19601f8301169050919050565b7f4e487b7100000000000000000000000000000000000000000000000000000000600052604160045260246000fd5b620004e38262000498565b810181811067ffffffffffffffff82111715620005055762000504620004a9565b5b80604052505050565b60006200051a6200047a565b9050620005288282620004d8565b919050565b600067ffffffffffffffff8211156200054b576200054a620004a9565b5b620005568262000498565b9050602081019050919050565b60005b838110156200058357808201518184015260208101905062000566565b8381111562000593576000848401525b50505050565b6000620005b0620005aa846200052d565b6200050e565b905082815260208101848484011115620005cf57620005ce62000493565b5b620005dc84828562000563565b509392505050565b600082601f830112620005fc57620005fb6200048e565b5b81516200060e84826020860162000599565b91505092915050565b600067ffffffffffffffff821115620006355762000634620004a9565b5b602082029050602081019050919050565b600080fd5b600073ffffffffffffffffffffffffffffffffffffffff82169050919050565b600062000678826200064b565b9050919050565b6200068a816200066b565b81146200069657600080fd5b50565b600081519050620006aa816200067f565b92915050565b6000620006c7620006c18462000617565b6200050e565b90508083825260208201905060208402830185811115620006ed57620006ec62000646565b5b835b818110156200071a578062000705888262000699565b845260208401935050602081019050620006ef565b5050509392505050565b600082601f8301126200073c576200073b6200048e565b5b81516200074e848260208601620006b0565b91505092915050565b600067ffffffffffffffff821115620007755762000774620004a9565b5b602082029050602081019050919050565b6000819050919050565b6200079b8162000786565b8114620007a757600080fd5b50565b600081519050620007bb8162000790565b92915050565b6000620007d8620007d28462000757565b6200050e565b90508083825260208201905060208402830185811115620007fe57620007fd62000646565b5b835b818110156200082b5780620008168882620007aa565b84526020840193505060208101905062000800565b5050509392505050565b600082601f8301126200084d576200084c6200048e565b5b81516200085f848260208601620007c1565b91505092915050565b600080600080600080600060e0888a0312156200088a576200088962000484565b5b600088015167ffffffffffffffff811115620008ab57620008aa62000489565b5b620008b98a828b01620005e4565b975050602088015167ffffffffffffffff811115620008dd57620008dc62000489565b5b620008eb8a828b01620005e4565b965050604088015167ffffffffffffffff8111156200090f576200090e62000489565b5b6200091d8a828b01620005e4565b955050606088015167ffffffffffffffff81111562000941576200094062000489565b5b6200094f8a828b0162000724565b945050608088015167ffffffffffffffff81111562000973576200097262000489565b5b620009818a828b0162000835565b93505060a0620009948a828b01620007aa565b92505060c0620009a78a828b01620007aa565b91505092959891949750929550565b6000819050919050565b620009cb81620009b6565b82525050565b620009dc8162000786565b82525050565b620009ed816200066b565b82525050565b600060a08201905062000a0a6000830188620009c0565b62000a196020830187620009c0565b62000a286040830186620009c0565b62000a376060830185620009d1565b62000a466080830184620009e2565b9695505050505050565b600081519050919050565b600082825260208201905092915050565b6000819050602082019050919050565b62000a87816200066b565b82525050565b600062000a9b838362000a7c565b60208301905092915050565b6000602082019050919050565b600062000ac18262000a50565b62000acd818562000a5b565b935062000ada8362000a6c565b8060005b8381101562000b1157815162000af5888262000a8d565b975062000b028362000aa7565b92505060018101905062000ade565b5085935050505092915050565b600081519050919050565b600082825260208201905092915050565b6000819050602082019050919050565b62000b558162000786565b82525050565b600062000b69838362000b4a565b60208301905092915050565b6000602082019050919050565b600062000b8f8262000b1e565b62000b9b818562000b29565b935062000ba88362000b3a565b8060005b8381101562000bdf57815162000bc3888262000b5b565b975062000bd08362000b75565b92505060018101905062000bac565b5085935050505092915050565b6000604082019050818103600083015262000c08818562000ab4565b9050818103602083015262000c1e818462000b82565b90509392505050565b7f4e487b7100000000000000000000000000000000000000000000000000000000600052601160045260246000fd5b600062000c638262000786565b915062000c708362000786565b9250827fffffffffffffffffffffffffffffffffffffffffffffffffffffffffffffffff0382111562000ca85762000ca762000c27565b5b828201905092915050565b7f4e487b7100000000000000000000000000000000000000000000000000000000600052602260045260246000fd5b6000600282049050600182168062000cfb57607f821691505b6020821081141562000d125762000d1162000cb3565b5b50919050565b6166cf8062000d286000396000f3fe6080604052600436106103ad5760003560e01c806387bceebc116101e7578063cf6926b81161010d578063eb8d2444116100a0578063f690772f1161006f578063f690772f14610d81578063f6c7c59a14610d9d578063fa4d280c14610dc8578063fc167c4914610df3576103ad565b8063eb8d244414610cc7578063ec93e9ad14610cf2578063f2fde38b14610d1b578063f64b87bf14610d44576103ad565b8063e0ad790c116100dc578063e0ad790c14610bfb578063e3dd97b114610c38578063e666801c14610c61578063e985e9c514610c8a576103ad565b8063cf6926b814610b81578063d1beca6414610b9d578063d47127bf14610bb4578063d547cfb714610bd0576103ad565b80639feca06511610185578063b8fc105111610154578063b8fc105114610ac5578063b989afda14610af0578063c87b56dd14610b1b578063cd77083314610b58576103ad565b80639feca06514610a1f578063a22cb46514610a48578063a561f53614610a71578063b88d4fde14610a9c576103ad565b80638ec3fcc5116101c15780638ec3fcc51461096357806395a724701461098c57806395d89b41146109c95780639ed80b1f146109f4576103ad565b806387bceebc146108e45780638c738c9c1461090d5780638da5cb5b14610938576103ad565b806334918dfd116102d757806355f804b31161026a57806369d10d6d1161023957806369d10d6d1461083a5780636f38d9221461086557806370a0823114610890578063715018a6146108cd576103ad565b806355f804b31461078d5780635c5298a6146107b65780636252048c146107e15780636352211e146107fd576103ad565b806342842e0e116102a657806342842e0e146106e7578063447fc47f146107105780634dc3a33e1461073b57806350001a9214610764576103ad565b806334918dfd1461064f5780633644e515146106665780633a564f261461069157806340fb78f5146106bc576103ad565b8063191655871161034f57806323b872dd1161031e57806323b872dd146105a55780632b0bcc3e146105ce578063320d7e43146105f957806332cb6b0c14610624576103ad565b806319165587146104ff578063194986ce146105285780631c9a684214610551578063230e3b7a1461057c576103ad565b8063081812fc1161038b578063081812fc14610443578063095ea7b31461048057806310b5454d146104a95780631415add4146104d4576103ad565b806301ffc9a7146103b257806305ec5741146103ef57806306fdde0314610418575b600080fd5b3480156103be57600080fd5b506103d960048036038101906103d49190614aaf565b610e1e565b6040516103e69190614af7565b60405180910390f35b3480156103fb57600080fd5b5061041660048036038101906104119190614b48565b610f00565b005b34801561042457600080fd5b5061042d610f86565b60405161043a9190614c0e565b60405180910390f35b34801561044f57600080fd5b5061046a60048036038101906104659190614b48565b611018565b6040516104779190614c71565b60405180910390f35b34801561048c57600080fd5b506104a760048036038101906104a29190614cb8565b61109d565b005b3480156104b557600080fd5b506104be6111b5565b6040516104cb9190614af7565b60405180910390f35b3480156104e057600080fd5b506104e96111c8565b6040516104f69190614d07565b60405180910390f35b34801561050b57600080fd5b5061052660048036038101906105219190614d60565b6111d9565b005b34801561053457600080fd5b5061054f600480360381019061054a9190614b48565b6112e5565b005b34801561055d57600080fd5b5061056661136b565b6040516105739190614d07565b60405180910390f35b34801561058857600080fd5b506105a3600480360381019061059e9190614b48565b611371565b005b3480156105b157600080fd5b506105cc60048036038101906105c79190614d8d565b6113f7565b005b3480156105da57600080fd5b506105e3611457565b6040516105f09190614d07565b60405180910390f35b34801561060557600080fd5b5061060e611468565b60405161061b9190614d07565b60405180910390f35b34801561063057600080fd5b50610639611479565b6040516106469190614d07565b60405180910390f35b34801561065b57600080fd5b5061066461147f565b005b34801561067257600080fd5b5061067b611527565b6040516106889190614df9565b60405180910390f35b34801561069d57600080fd5b506106a661152d565b6040516106b39190614d07565b60405180910390f35b3480156106c857600080fd5b506106d1611533565b6040516106de9190614d07565b60405180910390f35b3480156106f357600080fd5b5061070e60048036038101906107099190614d8d565b611539565b005b34801561071c57600080fd5b50610725611559565b6040516107329190614d07565b60405180910390f35b34801561074757600080fd5b50610762600480360381019061075d9190614b48565b61156a565b005b34801561077057600080fd5b5061078b60048036038101906107869190614b48565b611699565b005b34801561079957600080fd5b506107b460048036038101906107af9190614f49565b61171f565b005b3480156107c257600080fd5b506107cb6117b5565b6040516107d89190614d07565b60405180910390f35b6107fb60048036038101906107f69190614ff2565b6117c6565b005b34801561080957600080fd5b50610824600480360381019061081f9190614b48565b611d12565b6040516108319190614c71565b60405180910390f35b34801561084657600080fd5b5061084f611dc4565b60405161085c9190614d07565b60405180910390f35b34801561087157600080fd5b5061087a611dca565b6040516108879190614d07565b60405180910390f35b34801561089c57600080fd5b506108b760048036038101906108b29190615052565b611dd0565b6040516108c49190614d07565b60405180910390f35b3480156108d957600080fd5b506108e2611e88565b005b3480156108f057600080fd5b5061090b60048036038101906109069190614b48565b611f10565b005b34801561091957600080fd5b50610922611f96565b60405161092f9190614d07565b60405180910390f35b34801561094457600080fd5b5061094d611f9c565b60405161095a9190614c71565b60405180910390f35b34801561096f57600080fd5b5061098a6004803603810190610985919061507f565b611fc6565b005b34801561099857600080fd5b506109b360048036038101906109ae9190615052565b6120ef565b6040516109c09190614d07565b60405180910390f35b3480156109d557600080fd5b506109de612145565b6040516109eb9190614c0e565b60405180910390f35b348015610a0057600080fd5b50610a096121d7565b604051610a169190614d07565b60405180910390f35b348015610a2b57600080fd5b50610a466004803603810190610a419190614b48565b6121dd565b005b348015610a5457600080fd5b50610a6f6004803603810190610a6a91906150eb565b612263565b005b348015610a7d57600080fd5b50610a86612279565b604051610a939190614d07565b60405180910390f35b348015610aa857600080fd5b50610ac36004803603810190610abe91906151cc565b61227f565b005b348015610ad157600080fd5b50610ada6122e1565b604051610ae79190614d07565b60405180910390f35b348015610afc57600080fd5b50610b056122e7565b604051610b129190614d07565b60405180910390f35b348015610b2757600080fd5b50610b426004803603810190610b3d9190614b48565b6122f8565b604051610b4f9190614c0e565b60405180910390f35b348015610b6457600080fd5b50610b7f6004803603810190610b7a9190615052565b61239f565b005b610b9b6004803603810190610b969190614b48565b61245f565b005b348015610ba957600080fd5b50610bb2612738565b005b610bce6004803603810190610bc99190614b48565b6127e0565b005b348015610bdc57600080fd5b50610be5612ab7565b604051610bf29190614c0e565b60405180910390f35b348015610c0757600080fd5b50610c226004803603810190610c1d919061524f565b612b49565b604051610c2f9190614af7565b60405180910390f35b348015610c4457600080fd5b50610c5f6004803603810190610c5a919061507f565b612d4f565b005b348015610c6d57600080fd5b50610c886004803603810190610c839190614b48565b612e6b565b005b348015610c9657600080fd5b50610cb16004803603810190610cac919061529c565b612f8d565b604051610cbe9190614af7565b60405180910390f35b348015610cd357600080fd5b50610cdc613021565b604051610ce99190614af7565b60405180910390f35b348015610cfe57600080fd5b50610d196004803603810190610d149190614b48565b613034565b005b348015610d2757600080fd5b50610d426004803603810190610d3d9190615052565b6130ba565b005b348015610d5057600080fd5b50610d6b6004803603810190610d669190615052565b6131b2565b604051610d789190614d07565b60405180910390f35b610d9b6004803603810190610d969190614ff2565b613208565b005b348015610da957600080fd5b50610db2613747565b604051610dbf9190614d07565b60405180910390f35b348015610dd457600080fd5b50610ddd61374d565b604051610dea9190614df9565b60405180910390f35b348015610dff57600080fd5b50610e08613771565b604051610e159190614d07565b60405180910390f35b60007f80ac58cd000000000000000000000000000000000000000000000000000000007bffffffffffffffffffffffffffffffffffffffffffffffffffffffff1916827bffffffffffffffffffffffffffffffffffffffffffffffffffffffff19161480610ee957507f5b5e139f000000000000000000000000000000000000000000000000000000007bffffffffffffffffffffffffffffffffffffffffffffffffffffffff1916827bffffffffffffffffffffffffffffffffffffffffffffffffffffffff1916145b80610ef95750610ef882613777565b5b9050919050565b610f086137e1565b73ffffffffffffffffffffffffffffffffffffffff16610f26611f9c565b73ffffffffffffffffffffffffffffffffffffffff1614610f7c576040517f08c379a0000000000000000000000000000000000000000000000000000000008152600401610f7390615328565b60405180910390fd5b80600c8190555050565b606060008054610f9590615377565b80601f0160208091040260200160405190810160405280929190818152602001828054610fc190615377565b801561100e5780601f10610fe35761010080835404028352916020019161100e565b820191906000526020600020905b815481529060010190602001808311610ff157829003601f168201915b5050505050905090565b6000611023826137e9565b611062576040517f08c379a00000000000000000000000000000000000000000000000000000000081526004016110599061541b565b60405180910390fd5b6004600083815260200190815260200160002060009054906101000a900473ffffffffffffffffffffffffffffffffffffffff169050919050565b60006110a882611d12565b90508073ffffffffffffffffffffffffffffffffffffffff168373ffffffffffffffffffffffffffffffffffffffff161415611119576040517f08c379a0000000000000000000000000000000000000000000000000000000008152600401611110906154ad565b60405180910390fd5b8073ffffffffffffffffffffffffffffffffffffffff166111386137e1565b73ffffffffffffffffffffffffffffffffffffffff1614806111675750611166816111616137e1565b612f8d565b5b6111a6576040517f08c379a000000000000000000000000000000000000000000000000000000000815260040161119d9061553f565b60405180910390fd5b6111b08383613855565b505050565b601660159054906101000a900460ff1681565b60006111d4601d61390e565b905090565b6111e16137e1565b73ffffffffffffffffffffffffffffffffffffffff166111ff611f9c565b73ffffffffffffffffffffffffffffffffffffffff1614611255576040517f08c379a000000000000000000000000000000000000000000000000000000000815260040161124c90615328565b60405180910390fd5b601660009054906101000a900473ffffffffffffffffffffffffffffffffffffffff1673ffffffffffffffffffffffffffffffffffffffff166319165587826040518263ffffffff1660e01b81526004016112b0919061556e565b600060405180830381600087803b1580156112ca57600080fd5b505af11580156112de573d6000803e3d6000fd5b5050505050565b6112ed6137e1565b73ffffffffffffffffffffffffffffffffffffffff1661130b611f9c565b73ffffffffffffffffffffffffffffffffffffffff1614611361576040517f08c379a000000000000000000000000000000000000000000000000000000000815260040161135890615328565b60405180910390fd5b80600b8190555050565b600d5481565b6113796137e1565b73ffffffffffffffffffffffffffffffffffffffff16611397611f9c565b73ffffffffffffffffffffffffffffffffffffffff16146113ed576040517f08c379a00000000000000000000000000000000000000000000000000000000081526004016113e490615328565b60405180910390fd5b80600a8190555050565b6114086114026137e1565b8261391c565b611447576040517f08c379a000000000000000000000000000000000000000000000000000000000815260040161143e906155fb565b60405180910390fd5b6114528383836139fa565b505050565b6000611463601961390e565b905090565b6000611474601b61390e565b905090565b60105481565b6114876137e1565b73ffffffffffffffffffffffffffffffffffffffff166114a5611f9c565b73ffffffffffffffffffffffffffffffffffffffff16146114fb576040517f08c379a00000000000000000000000000000000000000000000000000000000081526004016114f290615328565b60405180910390fd5b601660149054906101000a900460ff1615601660146101000a81548160ff021916908315150217905550565b60095481565b60115481565b600f5481565b6115548383836040518060200160405280600081525061227f565b505050565b6000611565601e61390e565b905090565b6115726137e1565b73ffffffffffffffffffffffffffffffffffffffff16611590611f9c565b73ffffffffffffffffffffffffffffffffffffffff16146115e6576040517f08c379a00000000000000000000000000000000000000000000000000000000081526004016115dd90615328565b60405180910390fd5b6012546001826115f46117b5565b6115fe919061564a565b61160891906156a0565b10611648576040517f08c379a000000000000000000000000000000000000000000000000000000000815260040161163f90615720565b60405180910390fd5b60005b818110156116955761165d601c613c61565b6116826116686137e1565b6116706117b5565b600e5461167d919061564a565b613c77565b808061168d90615740565b91505061164b565b5050565b6116a16137e1565b73ffffffffffffffffffffffffffffffffffffffff166116bf611f9c565b73ffffffffffffffffffffffffffffffffffffffff1614611715576040517f08c379a000000000000000000000000000000000000000000000000000000000815260040161170c90615328565b60405180910390fd5b8060138190555050565b6117276137e1565b73ffffffffffffffffffffffffffffffffffffffff16611745611f9c565b73ffffffffffffffffffffffffffffffffffffffff161461179b576040517f08c379a000000000000000000000000000000000000000000000000000000000815260040161179290615328565b60405180910390fd5b80601f90805190602001906117b19291906149a0565b5050565b60006117c1601c61390e565b905090565b8181600073ffffffffffffffffffffffffffffffffffffffff16600860009054906101000a900473ffffffffffffffffffffffffffffffffffffffff1673ffffffffffffffffffffffffffffffffffffffff16141561185a576040517f08c379a0000000000000000000000000000000000000000000000000000000008152600401611851906157d5565b60405180910390fd5b60006009547f68e83002b91b0fd96d4df3566b5122221117e3ec6c2468fda594f6491f89b1c9336040516020016118929291906157f5565b604051602081830303815290604052805190602001206040516020016118b9929190615896565b604051602081830303815290604052805190602001209050600061192a84848080601f016020809104026020016040519081016040528093929190818152602001838380828437600081840152601f19601f8201169050808301925050505050505083613c9590919063ffffffff16565b9050600860009054906101000a900473ffffffffffffffffffffffffffffffffffffffff1673ffffffffffffffffffffffffffffffffffffffff168173ffffffffffffffffffffffffffffffffffffffff16146119bc576040517f08c379a00000000000000000000000000000000000000000000000000000000081526004016119b390615919565b60405180910390fd5b60026006541415611a02576040517f08c379a00000000000000000000000000000000000000000000000000000000081526004016119f990615985565b60405180910390fd5b6002600681905550601660159054906101000a900460ff16611a59576040517f08c379a0000000000000000000000000000000000000000000000000000000008152600401611a50906159f1565b60405180910390fd5b601554600188611a67611559565b611a71919061564a565b611a7b91906156a0565b10611abb576040517f08c379a0000000000000000000000000000000000000000000000000000000008152600401611ab290615a5d565b60405180910390fd5b600187601254600f54611ace91906156a0565b611ad8919061564a565b611ae291906156a0565b611aea611468565b10611b2a576040517f08c379a0000000000000000000000000000000000000000000000000000000008152600401611b2190615720565b60405180910390fd5b601354600188611b3a91906156a0565b10611b7a576040517f08c379a0000000000000000000000000000000000000000000000000000000008152600401611b7190615aef565b60405180910390fd5b86600c54611b889190615b0f565b341015611bca576040517f08c379a0000000000000000000000000000000000000000000000000000000008152600401611bc190615bb5565b60405180910390fd5b6000611bdc611bd76137e1565b6131b2565b1115611bf857611bf3611bed6137e1565b88613cbc565b611c33565b6040517f08c379a0000000000000000000000000000000000000000000000000000000008152600401611c2a90615c21565b60405180910390fd5b60005b87811015611c9757611c48601b613c61565b611c52601e613c61565b611c84611c5d6137e1565b611c65611468565b601254600e54611c75919061564a565b611c7f919061564a565b613c77565b8080611c8f90615740565b915050611c36565b50601660009054906101000a900473ffffffffffffffffffffffffffffffffffffffff1673ffffffffffffffffffffffffffffffffffffffff166108fc349081150290604051600060405180830381858888f19350505050158015611d00573d6000803e3d6000fd5b50600160068190555050505050505050565b6000806002600084815260200190815260200160002060009054906101000a900473ffffffffffffffffffffffffffffffffffffffff169050600073ffffffffffffffffffffffffffffffffffffffff168173ffffffffffffffffffffffffffffffffffffffff161415611dbb576040517f08c379a0000000000000000000000000000000000000000000000000000000008152600401611db290615cb3565b60405180910390fd5b80915050919050565b60145481565b600a5481565b60008073ffffffffffffffffffffffffffffffffffffffff168273ffffffffffffffffffffffffffffffffffffffff161415611e41576040517f08c379a0000000000000000000000000000000000000000000000000000000008152600401611e3890615d45565b60405180910390fd5b600360008373ffffffffffffffffffffffffffffffffffffffff1673ffffffffffffffffffffffffffffffffffffffff168152602001908152602001600020549050919050565b611e906137e1565b73ffffffffffffffffffffffffffffffffffffffff16611eae611f9c565b73ffffffffffffffffffffffffffffffffffffffff1614611f04576040517f08c379a0000000000000000000000000000000000000000000000000000000008152600401611efb90615328565b60405180910390fd5b611f0e6000613d16565b565b611f186137e1565b73ffffffffffffffffffffffffffffffffffffffff16611f36611f9c565b73ffffffffffffffffffffffffffffffffffffffff1614611f8c576040517f08c379a0000000000000000000000000000000000000000000000000000000008152600401611f8390615328565b60405180910390fd5b8060158190555050565b60155481565b6000600760009054906101000a900473ffffffffffffffffffffffffffffffffffffffff16905090565b611fce6137e1565b73ffffffffffffffffffffffffffffffffffffffff16611fec611f9c565b73ffffffffffffffffffffffffffffffffffffffff1614612042576040517f08c379a000000000000000000000000000000000000000000000000000000000815260040161203990615328565b60405180910390fd5b6012546001836120506117b5565b61205a919061564a565b61206491906156a0565b106120a4576040517f08c379a000000000000000000000000000000000000000000000000000000000815260040161209b90615720565b60405180910390fd5b60005b828110156120ea576120b9601c613c61565b6120d7826120c56117b5565b600e546120d2919061564a565b613c77565b80806120e290615740565b9150506120a7565b505050565b6000601760008373ffffffffffffffffffffffffffffffffffffffff1673ffffffffffffffffffffffffffffffffffffffff16815260200190815260200160002054600a5461213e91906156a0565b9050919050565b60606001805461215490615377565b80601f016020809104026020016040519081016040528092919081815260200182805461218090615377565b80156121cd5780601f106121a2576101008083540402835291602001916121cd565b820191906000526020600020905b8154815290600101906020018083116121b057829003601f168201915b5050505050905090565b600c5481565b6121e56137e1565b73ffffffffffffffffffffffffffffffffffffffff16612203611f9c565b73ffffffffffffffffffffffffffffffffffffffff1614612259576040517f08c379a000000000000000000000000000000000000000000000000000000000815260040161225090615328565b60405180910390fd5b80600d8190555050565b61227561226e6137e1565b8383613ddc565b5050565b600e5481565b61229061228a6137e1565b8361391c565b6122cf576040517f08c379a00000000000000000000000000000000000000000000000000000000081526004016122c6906155fb565b60405180910390fd5b6122db84848484613f49565b50505050565b60135481565b60006122f3601a61390e565b905090565b6060612303826137e9565b612342576040517f08c379a000000000000000000000000000000000000000000000000000000000815260040161233990615dd7565b60405180910390fd5b600061234c613fa5565b9050600081511161236c5760405180602001604052806000815250612397565b8061237684614037565b604051602001612387929190615e28565b6040516020818303038152906040525b915050919050565b6123a76137e1565b73ffffffffffffffffffffffffffffffffffffffff166123c5611f9c565b73ffffffffffffffffffffffffffffffffffffffff161461241b576040517f08c379a000000000000000000000000000000000000000000000000000000000815260040161241290615328565b60405180910390fd5b80600860006101000a81548173ffffffffffffffffffffffffffffffffffffffff021916908373ffffffffffffffffffffffffffffffffffffffff16021790555050565b600260065414156124a5576040517f08c379a000000000000000000000000000000000000000000000000000000000815260040161249c90615985565b60405180910390fd5b6002600681905550601660149054906101000a900460ff166124fc576040517f08c379a00000000000000000000000000000000000000000000000000000000081526004016124f3906159f1565b60405180910390fd5b601254600f5461250c91906156a0565b600182612517611468565b612521919061564a565b61252b91906156a0565b1061256b576040517f08c379a000000000000000000000000000000000000000000000000000000000815260040161256290615720565b60405180910390fd5b60135460018261257b91906156a0565b106125bb576040517f08c379a00000000000000000000000000000000000000000000000000000000081526004016125b290615aef565b60405180910390fd5b600c54341015612600576040517f08c379a00000000000000000000000000000000000000000000000000000000081526004016125f790615bb5565b60405180910390fd5b600061261261260d6137e1565b6131b2565b111561262e576126296126236137e1565b82613cbc565b612669565b6040517f08c379a000000000000000000000000000000000000000000000000000000000815260040161266090615c21565b60405180910390fd5b60005b818110156126c35761267e601b613c61565b6126b06126896137e1565b612691611468565b601254600e546126a1919061564a565b6126ab919061564a565b613c77565b80806126bb90615740565b91505061266c565b50601660009054906101000a900473ffffffffffffffffffffffffffffffffffffffff1673ffffffffffffffffffffffffffffffffffffffff166108fc349081150290604051600060405180830381858888f1935050505015801561272c573d6000803e3d6000fd5b50600160068190555050565b6127406137e1565b73ffffffffffffffffffffffffffffffffffffffff1661275e611f9c565b73ffffffffffffffffffffffffffffffffffffffff16146127b4576040517f08c379a00000000000000000000000000000000000000000000000000000000081526004016127ab90615328565b60405180910390fd5b601660159054906101000a900460ff1615601660156101000a81548160ff021916908315150217905550565b60026006541415612826576040517f08c379a000000000000000000000000000000000000000000000000000000000815260040161281d90615985565b60405180910390fd5b6002600681905550601660149054906101000a900460ff1661287d576040517f08c379a0000000000000000000000000000000000000000000000000000000008152600401612874906159f1565b60405180910390fd5b601154600e5461288d91906156a0565b600182612898611457565b6128a2919061564a565b6128ac91906156a0565b106128ec576040517f08c379a00000000000000000000000000000000000000000000000000000000081526004016128e390615720565b60405180910390fd5b6013546001826128fc91906156a0565b1061293c576040517f08c379a000000000000000000000000000000000000000000000000000000000815260040161293390615aef565b60405180910390fd5b80600d5461294a9190615b0f565b34101561298c576040517f08c379a000000000000000000000000000000000000000000000000000000000815260040161298390615bb5565b60405180910390fd5b600061299e6129996137e1565b6120ef565b11156129ba576129b56129af6137e1565b82614198565b6129f5565b6040517f08c379a00000000000000000000000000000000000000000000000000000000081526004016129ec90615c21565b60405180910390fd5b60005b81811015612a4257612a0a6019613c61565b612a2f612a156137e1565b612a1d611457565b601154612a2a919061564a565b613c77565b8080612a3a90615740565b9150506129f8565b50601660009054906101000a900473ffffffffffffffffffffffffffffffffffffffff1673ffffffffffffffffffffffffffffffffffffffff166108fc349081150290604051600060405180830381858888f19350505050158015612aab573d6000803e3d6000fd5b50600160068190555050565b6060601f8054612ac690615377565b80601f0160208091040260200160405190810160405280929190818152602001828054612af290615377565b8015612b3f5780601f10612b1457610100808354040283529160200191612b3f565b820191906000526020600020905b815481529060010190602001808311612b2257829003601f168201915b5050505050905090565b60008282600073ffffffffffffffffffffffffffffffffffffffff16600860009054906101000a900473ffffffffffffffffffffffffffffffffffffffff1673ffffffffffffffffffffffffffffffffffffffff161415612bdf576040517f08c379a0000000000000000000000000000000000000000000000000000000008152600401612bd6906157d5565b60405180910390fd5b60006009547f68e83002b91b0fd96d4df3566b5122221117e3ec6c2468fda594f6491f89b1c933604051602001612c179291906157f5565b60405160208183030381529060405280519060200120604051602001612c3e929190615896565b6040516020818303038152906040528051906020012090506000612caf84848080601f016020809104026020016040519081016040528093929190818152602001838380828437600081840152601f19601f8201169050808301925050505050505083613c9590919063ffffffff16565b9050600860009054906101000a900473ffffffffffffffffffffffffffffffffffffffff1673ffffffffffffffffffffffffffffffffffffffff168173ffffffffffffffffffffffffffffffffffffffff1614612d41576040517f08c379a0000000000000000000000000000000000000000000000000000000008152600401612d3890615919565b60405180910390fd5b600194505050505092915050565b612d576137e1565b73ffffffffffffffffffffffffffffffffffffffff16612d75611f9c565b73ffffffffffffffffffffffffffffffffffffffff1614612dcb576040517f08c379a0000000000000000000000000000000000000000000000000000000008152600401612dc290615328565b60405180910390fd5b601154600183612dd96122e7565b612de3919061564a565b612ded91906156a0565b10612e2d576040517f08c379a0000000000000000000000000000000000000000000000000000000008152600401612e2490615720565b60405180910390fd5b60005b82811015612e6657612e42601a613c61565b612e5382612e4e6122e7565b613c77565b8080612e5e90615740565b915050612e30565b505050565b612e736137e1565b73ffffffffffffffffffffffffffffffffffffffff16612e91611f9c565b73ffffffffffffffffffffffffffffffffffffffff1614612ee7576040517f08c379a0000000000000000000000000000000000000000000000000000000008152600401612ede90615328565b60405180910390fd5b601154600182612ef56122e7565b612eff919061564a565b612f0991906156a0565b10612f49576040517f08c379a0000000000000000000000000000000000000000000000000000000008152600401612f4090615720565b60405180910390fd5b60005b81811015612f8957612f5e601a613c61565b612f76612f696137e1565b612f716122e7565b613c77565b8080612f8190615740565b915050612f4c565b5050565b6000600560008473ffffffffffffffffffffffffffffffffffffffff1673ffffffffffffffffffffffffffffffffffffffff16815260200190815260200160002060008373ffffffffffffffffffffffffffffffffffffffff1673ffffffffffffffffffffffffffffffffffffffff16815260200190815260200160002060009054906101000a900460ff16905092915050565b601660149054906101000a900460ff1681565b61303c6137e1565b73ffffffffffffffffffffffffffffffffffffffff1661305a611f9c565b73ffffffffffffffffffffffffffffffffffffffff16146130b0576040517f08c379a00000000000000000000000000000000000000000000000000000000081526004016130a790615328565b60405180910390fd5b8060148190555050565b6130c26137e1565b73ffffffffffffffffffffffffffffffffffffffff166130e0611f9c565b73ffffffffffffffffffffffffffffffffffffffff1614613136576040517f08c379a000000000000000000000000000000000000000000000000000000000815260040161312d90615328565b60405180910390fd5b600073ffffffffffffffffffffffffffffffffffffffff168173ffffffffffffffffffffffffffffffffffffffff1614156131a6576040517f08c379a000000000000000000000000000000000000000000000000000000000815260040161319d90615ebe565b60405180910390fd5b6131af81613d16565b50565b6000601860008373ffffffffffffffffffffffffffffffffffffffff1673ffffffffffffffffffffffffffffffffffffffff16815260200190815260200160002054600b5461320191906156a0565b9050919050565b8181600073ffffffffffffffffffffffffffffffffffffffff16600860009054906101000a900473ffffffffffffffffffffffffffffffffffffffff1673ffffffffffffffffffffffffffffffffffffffff16141561329c576040517f08c379a0000000000000000000000000000000000000000000000000000000008152600401613293906157d5565b60405180910390fd5b60006009547f68e83002b91b0fd96d4df3566b5122221117e3ec6c2468fda594f6491f89b1c9336040516020016132d49291906157f5565b604051602081830303815290604052805190602001206040516020016132fb929190615896565b604051602081830303815290604052805190602001209050600061336c84848080601f016020809104026020016040519081016040528093929190818152602001838380828437600081840152601f19601f8201169050808301925050505050505083613c9590919063ffffffff16565b9050600860009054906101000a900473ffffffffffffffffffffffffffffffffffffffff1673ffffffffffffffffffffffffffffffffffffffff168173ffffffffffffffffffffffffffffffffffffffff16146133fe576040517f08c379a00000000000000000000000000000000000000000000000000000000081526004016133f590615919565b60405180910390fd5b60026006541415613444576040517f08c379a000000000000000000000000000000000000000000000000000000000815260040161343b90615985565b60405180910390fd5b6002600681905550601660159054906101000a900460ff1661349b576040517f08c379a0000000000000000000000000000000000000000000000000000000008152600401613492906159f1565b60405180910390fd5b6014546001886134a96111c8565b6134b3919061564a565b6134bd91906156a0565b106134fd576040517f08c379a00000000000000000000000000000000000000000000000000000000081526004016134f490615a5d565b60405180910390fd5b600187601154600e5461351091906156a0565b61351a919061564a565b61352491906156a0565b61352c611457565b1061356c576040517f08c379a000000000000000000000000000000000000000000000000000000000815260040161356390615720565b60405180910390fd5b60135460018861357c91906156a0565b106135bc576040517f08c379a00000000000000000000000000000000000000000000000000000000081526004016135b390615aef565b60405180910390fd5b86600d546135ca9190615b0f565b34101561360c576040517f08c379a000000000000000000000000000000000000000000000000000000000815260040161360390615bb5565b60405180910390fd5b600061361e6136196137e1565b6120ef565b111561363a5761363561362f6137e1565b88614198565b613675565b6040517f08c379a000000000000000000000000000000000000000000000000000000000815260040161366c90615c21565b60405180910390fd5b60005b878110156136cc5761368a6019613c61565b613694601d613c61565b6136b961369f6137e1565b6136a7611457565b6011546136b4919061564a565b613c77565b80806136c490615740565b915050613678565b50601660009054906101000a900473ffffffffffffffffffffffffffffffffffffffff1673ffffffffffffffffffffffffffffffffffffffff166108fc349081150290604051600060405180830381858888f19350505050158015613735573d6000803e3d6000fd5b50600160068190555050505050505050565b600b5481565b7f68e83002b91b0fd96d4df3566b5122221117e3ec6c2468fda594f6491f89b1c981565b60125481565b60007f01ffc9a7000000000000000000000000000000000000000000000000000000007bffffffffffffffffffffffffffffffffffffffffffffffffffffffff1916827bffffffffffffffffffffffffffffffffffffffffffffffffffffffff1916149050919050565b600033905090565b60008073ffffffffffffffffffffffffffffffffffffffff166002600084815260200190815260200160002060009054906101000a900473ffffffffffffffffffffffffffffffffffffffff1673ffffffffffffffffffffffffffffffffffffffff1614159050919050565b816004600083815260200190815260200160002060006101000a81548173ffffffffffffffffffffffffffffffffffffffff021916908373ffffffffffffffffffffffffffffffffffffffff160217905550808273ffffffffffffffffffffffffffffffffffffffff166138c883611d12565b73ffffffffffffffffffffffffffffffffffffffff167f8c5be1e5ebec7d5bd14f71427d1e84f3dd0314c0f7b2291e5b200ac8c7c3b92560405160405180910390a45050565b600081600001549050919050565b6000613927826137e9565b613966576040517f08c379a000000000000000000000000000000000000000000000000000000000815260040161395d90615f50565b60405180910390fd5b600061397183611d12565b90508073ffffffffffffffffffffffffffffffffffffffff168473ffffffffffffffffffffffffffffffffffffffff1614806139e057508373ffffffffffffffffffffffffffffffffffffffff166139c884611018565b73ffffffffffffffffffffffffffffffffffffffff16145b806139f157506139f08185612f8d565b5b91505092915050565b8273ffffffffffffffffffffffffffffffffffffffff16613a1a82611d12565b73ffffffffffffffffffffffffffffffffffffffff1614613a70576040517f08c379a0000000000000000000000000000000000000000000000000000000008152600401613a6790615fe2565b60405180910390fd5b600073ffffffffffffffffffffffffffffffffffffffff168273ffffffffffffffffffffffffffffffffffffffff161415613ae0576040517f08c379a0000000000000000000000000000000000000000000000000000000008152600401613ad790616074565b60405180910390fd5b613aeb8383836141f2565b613af6600082613855565b6001600360008573ffffffffffffffffffffffffffffffffffffffff1673ffffffffffffffffffffffffffffffffffffffff1681526020019081526020016000206000828254613b4691906156a0565b925050819055506001600360008473ffffffffffffffffffffffffffffffffffffffff1673ffffffffffffffffffffffffffffffffffffffff1681526020019081526020016000206000828254613b9d919061564a565b92505081905550816002600083815260200190815260200160002060006101000a81548173ffffffffffffffffffffffffffffffffffffffff021916908373ffffffffffffffffffffffffffffffffffffffff160217905550808273ffffffffffffffffffffffffffffffffffffffff168473ffffffffffffffffffffffffffffffffffffffff167fddf252ad1be2c89b69c2b068fc378daa952ba7f163c4a11628f55a4df523b3ef60405160405180910390a4613c5c8383836141f7565b505050565b6001816000016000828254019250508190555050565b613c918282604051806020016040528060008152506141fc565b5050565b6000806000613ca48585614257565b91509150613cb1816142da565b819250505092915050565b80601860008473ffffffffffffffffffffffffffffffffffffffff1673ffffffffffffffffffffffffffffffffffffffff1681526020019081526020016000206000828254613d0b919061564a565b925050819055505050565b6000600760009054906101000a900473ffffffffffffffffffffffffffffffffffffffff16905081600760006101000a81548173ffffffffffffffffffffffffffffffffffffffff021916908373ffffffffffffffffffffffffffffffffffffffff1602179055508173ffffffffffffffffffffffffffffffffffffffff168173ffffffffffffffffffffffffffffffffffffffff167f8be0079c531659141344cd1fd0a4f28419497f9722a3daafe3b4186f6b6457e060405160405180910390a35050565b8173ffffffffffffffffffffffffffffffffffffffff168373ffffffffffffffffffffffffffffffffffffffff161415613e4b576040517f08c379a0000000000000000000000000000000000000000000000000000000008152600401613e42906160e0565b60405180910390fd5b80600560008573ffffffffffffffffffffffffffffffffffffffff1673ffffffffffffffffffffffffffffffffffffffff16815260200190815260200160002060008473ffffffffffffffffffffffffffffffffffffffff1673ffffffffffffffffffffffffffffffffffffffff16815260200190815260200160002060006101000a81548160ff0219169083151502179055508173ffffffffffffffffffffffffffffffffffffffff168373ffffffffffffffffffffffffffffffffffffffff167f17307eab39ab6107e8899845ad3d59bd9653f200f220920489ca2b5937696c3183604051613f3c9190614af7565b60405180910390a3505050565b613f548484846139fa565b613f60848484846144af565b613f9f576040517f08c379a0000000000000000000000000000000000000000000000000000000008152600401613f9690616172565b60405180910390fd5b50505050565b6060601f8054613fb490615377565b80601f0160208091040260200160405190810160405280929190818152602001828054613fe090615377565b801561402d5780601f106140025761010080835404028352916020019161402d565b820191906000526020600020905b81548152906001019060200180831161401057829003601f168201915b5050505050905090565b6060600082141561407f576040518060400160405280600181526020017f30000000000000000000000000000000000000000000000000000000000000008152509050614193565b600082905060005b600082146140b157808061409a90615740565b915050600a826140aa91906161c1565b9150614087565b60008167ffffffffffffffff8111156140cd576140cc614e1e565b5b6040519080825280601f01601f1916602001820160405280156140ff5781602001600182028036833780820191505090505b5090505b6000851461418c5760018261411891906156a0565b9150600a8561412791906161f2565b6030614133919061564a565b60f81b81838151811061414957614148616223565b5b60200101907effffffffffffffffffffffffffffffffffffffffffffffffffffffffffffff1916908160001a905350600a8561418591906161c1565b9450614103565b8093505050505b919050565b80601760008473ffffffffffffffffffffffffffffffffffffffff1673ffffffffffffffffffffffffffffffffffffffff16815260200190815260200160002060008282546141e7919061564a565b925050819055505050565b505050565b505050565b6142068383614637565b61421360008484846144af565b614252576040517f08c379a000000000000000000000000000000000000000000000000000000000815260040161424990616172565b60405180910390fd5b505050565b6000806041835114156142995760008060006020860151925060408601519150606086015160001a905061428d87828585614811565b945094505050506142d3565b6040835114156142ca5760008060208501519150604085015190506142bf86838361491e565b9350935050506142d3565b60006002915091505b9250929050565b600060048111156142ee576142ed616252565b5b81600481111561430157614300616252565b5b141561430c576144ac565b600160048111156143205761431f616252565b5b81600481111561433357614332616252565b5b1415614374576040517f08c379a000000000000000000000000000000000000000000000000000000000815260040161436b906162cd565b60405180910390fd5b6002600481111561438857614387616252565b5b81600481111561439b5761439a616252565b5b14156143dc576040517f08c379a00000000000000000000000000000000000000000000000000000000081526004016143d390616339565b60405180910390fd5b600360048111156143f0576143ef616252565b5b81600481111561440357614402616252565b5b1415614444576040517f08c379a000000000000000000000000000000000000000000000000000000000815260040161443b906163cb565b60405180910390fd5b60048081111561445757614456616252565b5b81600481111561446a57614469616252565b5b14156144ab576040517f08c379a00000000000000000000000000000000000000000000000000000000081526004016144a29061645d565b60405180910390fd5b5b50565b60006144d08473ffffffffffffffffffffffffffffffffffffffff1661497d565b1561462a578373ffffffffffffffffffffffffffffffffffffffff1663150b7a026144f96137e1565b8786866040518563ffffffff1660e01b815260040161451b94939291906164d2565b6020604051808303816000875af192505050801561455757506040513d601f19601f820116820180604052508101906145549190616533565b60015b6145da573d8060008114614587576040519150601f19603f3d011682016040523d82523d6000602084013e61458c565b606091505b506000815114156145d2576040517f08c379a00000000000000000000000000000000000000000000000000000000081526004016145c990616172565b60405180910390fd5b805181602001fd5b63150b7a0260e01b7bffffffffffffffffffffffffffffffffffffffffffffffffffffffff1916817bffffffffffffffffffffffffffffffffffffffffffffffffffffffff19161491505061462f565b600190505b949350505050565b600073ffffffffffffffffffffffffffffffffffffffff168273ffffffffffffffffffffffffffffffffffffffff1614156146a7576040517f08c379a000000000000000000000000000000000000000000000000000000000815260040161469e906165ac565b60405180910390fd5b6146b0816137e9565b156146f0576040517f08c379a00000000000000000000000000000000000000000000000000000000081526004016146e790616618565b60405180910390fd5b6146fc600083836141f2565b6001600360008473ffffffffffffffffffffffffffffffffffffffff1673ffffffffffffffffffffffffffffffffffffffff168152602001908152602001600020600082825461474c919061564a565b92505081905550816002600083815260200190815260200160002060006101000a81548173ffffffffffffffffffffffffffffffffffffffff021916908373ffffffffffffffffffffffffffffffffffffffff160217905550808273ffffffffffffffffffffffffffffffffffffffff16600073ffffffffffffffffffffffffffffffffffffffff167fddf252ad1be2c89b69c2b068fc378daa952ba7f163c4a11628f55a4df523b3ef60405160405180910390a461480d600083836141f7565b5050565b6000807f7fffffffffffffffffffffffffffffff5d576e7357a4501ddfe92f46681b20a08360001c111561484c576000600391509150614915565b601b8560ff16141580156148645750601c8560ff1614155b15614876576000600491509150614915565b60006001878787876040516000815260200160405260405161489b9493929190616654565b6020604051602081039080840390855afa1580156148bd573d6000803e3d6000fd5b505050602060405103519050600073ffffffffffffffffffffffffffffffffffffffff168173ffffffffffffffffffffffffffffffffffffffff16141561490c57600060019250925050614915565b80600092509250505b94509492505050565b60008060007f7fffffffffffffffffffffffffffffffffffffffffffffffffffffffffffffff60001b841690506000601b60ff8660001c901c614961919061564a565b905061496f87828885614811565b935093505050935093915050565b6000808273ffffffffffffffffffffffffffffffffffffffff163b119050919050565b8280546149ac90615377565b90600052602060002090601f0160209004810192826149ce5760008555614a15565b82601f106149e757805160ff1916838001178555614a15565b82800160010185558215614a15579182015b82811115614a145782518255916020019190600101906149f9565b5b509050614a229190614a26565b5090565b5b80821115614a3f576000816000905550600101614a27565b5090565b6000604051905090565b600080fd5b600080fd5b60007fffffffff0000000000000000000000000000000000000000000000000000000082169050919050565b614a8c81614a57565b8114614a9757600080fd5b50565b600081359050614aa981614a83565b92915050565b600060208284031215614ac557614ac4614a4d565b5b6000614ad384828501614a9a565b91505092915050565b60008115159050919050565b614af181614adc565b82525050565b6000602082019050614b0c6000830184614ae8565b92915050565b6000819050919050565b614b2581614b12565b8114614b3057600080fd5b50565b600081359050614b4281614b1c565b92915050565b600060208284031215614b5e57614b5d614a4d565b5b6000614b6c84828501614b33565b91505092915050565b600081519050919050565b600082825260208201905092915050565b60005b83811015614baf578082015181840152602081019050614b94565b83811115614bbe576000848401525b50505050565b6000601f19601f8301169050919050565b6000614be082614b75565b614bea8185614b80565b9350614bfa818560208601614b91565b614c0381614bc4565b840191505092915050565b60006020820190508181036000830152614c288184614bd5565b905092915050565b600073ffffffffffffffffffffffffffffffffffffffff82169050919050565b6000614c5b82614c30565b9050919050565b614c6b81614c50565b82525050565b6000602082019050614c866000830184614c62565b92915050565b614c9581614c50565b8114614ca057600080fd5b50565b600081359050614cb281614c8c565b92915050565b60008060408385031215614ccf57614cce614a4d565b5b6000614cdd85828601614ca3565b9250506020614cee85828601614b33565b9150509250929050565b614d0181614b12565b82525050565b6000602082019050614d1c6000830184614cf8565b92915050565b6000614d2d82614c30565b9050919050565b614d3d81614d22565b8114614d4857600080fd5b50565b600081359050614d5a81614d34565b92915050565b600060208284031215614d7657614d75614a4d565b5b6000614d8484828501614d4b565b91505092915050565b600080600060608486031215614da657614da5614a4d565b5b6000614db486828701614ca3565b9350506020614dc586828701614ca3565b9250506040614dd686828701614b33565b9150509250925092565b6000819050919050565b614df381614de0565b82525050565b6000602082019050614e0e6000830184614dea565b92915050565b600080fd5b600080fd5b7f4e487b7100000000000000000000000000000000000000000000000000000000600052604160045260246000fd5b614e5682614bc4565b810181811067ffffffffffffffff82111715614e7557614e74614e1e565b5b80604052505050565b6000614e88614a43565b9050614e948282614e4d565b919050565b600067ffffffffffffffff821115614eb457614eb3614e1e565b5b614ebd82614bc4565b9050602081019050919050565b82818337600083830152505050565b6000614eec614ee784614e99565b614e7e565b905082815260208101848484011115614f0857614f07614e19565b5b614f13848285614eca565b509392505050565b600082601f830112614f3057614f2f614e14565b5b8135614f40848260208601614ed9565b91505092915050565b600060208284031215614f5f57614f5e614a4d565b5b600082013567ffffffffffffffff811115614f7d57614f7c614a52565b5b614f8984828501614f1b565b91505092915050565b600080fd5b600080fd5b60008083601f840112614fb257614fb1614e14565b5b8235905067ffffffffffffffff811115614fcf57614fce614f92565b5b602083019150836001820283011115614feb57614fea614f97565b5b9250929050565b60008060006040848603121561500b5761500a614a4d565b5b600061501986828701614b33565b935050602084013567ffffffffffffffff81111561503a57615039614a52565b5b61504686828701614f9c565b92509250509250925092565b60006020828403121561506857615067614a4d565b5b600061507684828501614ca3565b91505092915050565b6000806040838503121561509657615095614a4d565b5b60006150a485828601614b33565b92505060206150b585828601614ca3565b9150509250929050565b6150c881614adc565b81146150d357600080fd5b50565b6000813590506150e5816150bf565b92915050565b6000806040838503121561510257615101614a4d565b5b600061511085828601614ca3565b9250506020615121858286016150d6565b9150509250929050565b600067ffffffffffffffff82111561514657615145614e1e565b5b61514f82614bc4565b9050602081019050919050565b600061516f61516a8461512b565b614e7e565b90508281526020810184848401111561518b5761518a614e19565b5b615196848285614eca565b509392505050565b600082601f8301126151b3576151b2614e14565b5b81356151c384826020860161515c565b91505092915050565b600080600080608085870312156151e6576151e5614a4d565b5b60006151f487828801614ca3565b945050602061520587828801614ca3565b935050604061521687828801614b33565b925050606085013567ffffffffffffffff81111561523757615236614a52565b5b6152438782880161519e565b91505092959194509250565b6000806020838503121561526657615265614a4d565b5b600083013567ffffffffffffffff81111561528457615283614a52565b5b61529085828601614f9c565b92509250509250929050565b600080604083850312156152b3576152b2614a4d565b5b60006152c185828601614ca3565b92505060206152d285828601614ca3565b9150509250929050565b7f4f776e61626c653a2063616c6c6572206973206e6f7420746865206f776e6572600082015250565b6000615312602083614b80565b915061531d826152dc565b602082019050919050565b6000602082019050818103600083015261534181615305565b9050919050565b7f4e487b7100000000000000000000000000000000000000000000000000000000600052602260045260246000fd5b6000600282049050600182168061538f57607f821691505b602082108114156153a3576153a2615348565b5b50919050565b7f4552433732313a20617070726f76656420717565727920666f72206e6f6e657860008201527f697374656e7420746f6b656e0000000000000000000000000000000000000000602082015250565b6000615405602c83614b80565b9150615410826153a9565b604082019050919050565b60006020820190508181036000830152615434816153f8565b9050919050565b7f4552433732313a20617070726f76616c20746f2063757272656e74206f776e6560008201527f7200000000000000000000000000000000000000000000000000000000000000602082015250565b6000615497602183614b80565b91506154a28261543b565b604082019050919050565b600060208201905081810360008301526154c68161548a565b9050919050565b7f4552433732313a20617070726f76652063616c6c6572206973206e6f74206f7760008201527f6e6572206e6f7220617070726f76656420666f7220616c6c0000000000000000602082015250565b6000615529603883614b80565b9150615534826154cd565b604082019050919050565b600060208201905081810360008301526155588161551c565b9050919050565b61556881614d22565b82525050565b6000602082019050615583600083018461555f565b92915050565b7f4552433732313a207472616e736665722063616c6c6572206973206e6f74206f60008201527f776e6572206e6f7220617070726f766564000000000000000000000000000000602082015250565b60006155e5603183614b80565b91506155f082615589565b604082019050919050565b60006020820190508181036000830152615614816155d8565b9050919050565b7f4e487b7100000000000000000000000000000000000000000000000000000000600052601160045260246000fd5b600061565582614b12565b915061566083614b12565b9250827fffffffffffffffffffffffffffffffffffffffffffffffffffffffffffffffff038211156156955761569461561b565b5b828201905092915050565b60006156ab82614b12565b91506156b683614b12565b9250828210156156c9576156c861561b565b5b828203905092915050565b7f45786365656473206d617820737570706c790000000000000000000000000000600082015250565b600061570a601283614b80565b9150615715826156d4565b602082019050919050565b60006020820190508181036000830152615739816156fd565b9050919050565b600061574b82614b12565b91507fffffffffffffffffffffffffffffffffffffffffffffffffffffffffffffffff82141561577e5761577d61561b565b5b600182019050919050565b7f77686974656c697374206e6f7420656e61626c65640000000000000000000000600082015250565b60006157bf601583614b80565b91506157ca82615789565b602082019050919050565b600060208201905081810360008301526157ee816157b2565b9050919050565b600060408201905061580a6000830185614dea565b6158176020830184614c62565b9392505050565b600081905092915050565b7f1901000000000000000000000000000000000000000000000000000000000000600082015250565b600061585f60028361581e565b915061586a82615829565b600282019050919050565b6000819050919050565b61589061588b82614de0565b615875565b82525050565b60006158a182615852565b91506158ad828561587f565b6020820191506158bd828461587f565b6020820191508190509392505050565b7f496e76616c6964205369676e6174757265000000000000000000000000000000600082015250565b6000615903601183614b80565b915061590e826158cd565b602082019050919050565b60006020820190508181036000830152615932816158f6565b9050919050565b7f5265656e7472616e637947756172643a207265656e7472616e742063616c6c00600082015250565b600061596f601f83614b80565b915061597a82615939565b602082019050919050565b6000602082019050818103600083015261599e81615962565b9050919050565b7f53616c65206e6f74206163746976650000000000000000000000000000000000600082015250565b60006159db600f83614b80565b91506159e6826159a5565b602082019050919050565b60006020820190508181036000830152615a0a816159ce565b9050919050565b7f457863656564732077686974656c69737420737570706c790000000000000000600082015250565b6000615a47601883614b80565b9150615a5282615a11565b602082019050919050565b60006020820190508181036000830152615a7681615a3a565b9050919050565b7f547279696e6720746f206d696e7420746f6f206d616e7920617420612074696d60008201527f6500000000000000000000000000000000000000000000000000000000000000602082015250565b6000615ad9602183614b80565b9150615ae482615a7d565b604082019050919050565b60006020820190508181036000830152615b0881615acc565b9050919050565b6000615b1a82614b12565b9150615b2583614b12565b9250817fffffffffffffffffffffffffffffffffffffffffffffffffffffffffffffffff0483118215151615615b5e57615b5d61561b565b5b828202905092915050565b7f496e73756666696369656e74207061796d656e74000000000000000000000000600082015250565b6000615b9f601483614b80565b9150615baa82615b69565b602082019050919050565b60006020820190508181036000830152615bce81615b92565b9050919050565b7f4d696e74696e67206c696d697420657863656564656400000000000000000000600082015250565b6000615c0b601683614b80565b9150615c1682615bd5565b602082019050919050565b60006020820190508181036000830152615c3a81615bfe565b9050919050565b7f4552433732313a206f776e657220717565727920666f72206e6f6e657869737460008201527f656e7420746f6b656e0000000000000000000000000000000000000000000000602082015250565b6000615c9d602983614b80565b9150615ca882615c41565b604082019050919050565b60006020820190508181036000830152615ccc81615c90565b9050919050565b7f4552433732313a2062616c616e636520717565727920666f7220746865207a6560008201527f726f206164647265737300000000000000000000000000000000000000000000602082015250565b6000615d2f602a83614b80565b9150615d3a82615cd3565b604082019050919050565b60006020820190508181036000830152615d5e81615d22565b9050919050565b7f4552433732314d657461646174613a2055524920717565727920666f72206e6f60008201527f6e6578697374656e7420746f6b656e0000000000000000000000000000000000602082015250565b6000615dc1602f83614b80565b9150615dcc82615d65565b604082019050919050565b60006020820190508181036000830152615df081615db4565b9050919050565b6000615e0282614b75565b615e0c818561581e565b9350615e1c818560208601614b91565b80840191505092915050565b6000615e348285615df7565b9150615e408284615df7565b91508190509392505050565b7f4f776e61626c653a206e6577206f776e657220697320746865207a65726f206160008201527f6464726573730000000000000000000000000000000000000000000000000000602082015250565b6000615ea8602683614b80565b9150615eb382615e4c565b604082019050919050565b60006020820190508181036000830152615ed781615e9b565b9050919050565b7f4552433732313a206f70657261746f7220717565727920666f72206e6f6e657860008201527f697374656e7420746f6b656e0000000000000000000000000000000000000000602082015250565b6000615f3a602c83614b80565b9150615f4582615ede565b604082019050919050565b60006020820190508181036000830152615f6981615f2d565b9050919050565b7f4552433732313a207472616e736665722066726f6d20696e636f72726563742060008201527f6f776e6572000000000000000000000000000000000000000000000000000000602082015250565b6000615fcc602583614b80565b9150615fd782615f70565b604082019050919050565b60006020820190508181036000830152615ffb81615fbf565b9050919050565b7f4552433732313a207472616e7366657220746f20746865207a65726f2061646460008201527f7265737300000000000000000000000000000000000000000000000000000000602082015250565b600061605e602483614b80565b915061606982616002565b604082019050919050565b6000602082019050818103600083015261608d81616051565b9050919050565b7f4552433732313a20617070726f766520746f2063616c6c657200000000000000600082015250565b60006160ca601983614b80565b91506160d582616094565b602082019050919050565b600060208201905081810360008301526160f9816160bd565b9050919050565b7f4552433732313a207472616e7366657220746f206e6f6e20455243373231526560008201527f63656976657220696d706c656d656e7465720000000000000000000000000000602082015250565b600061615c603283614b80565b915061616782616100565b604082019050919050565b6000602082019050818103600083015261618b8161614f565b9050919050565b7f4e487b7100000000000000000000000000000000000000000000000000000000600052601260045260246000fd5b60006161cc82614b12565b91506161d783614b12565b9250826161e7576161e6616192565b5b828204905092915050565b60006161fd82614b12565b915061620883614b12565b92508261621857616217616192565b5b828206905092915050565b7f4e487b7100000000000000000000000000000000000000000000000000000000600052603260045260246000fd5b7f4e487b7100000000000000000000000000000000000000000000000000000000600052602160045260246000fd5b7f45434453413a20696e76616c6964207369676e61747572650000000000000000600082015250565b60006162b7601883614b80565b91506162c282616281565b602082019050919050565b600060208201905081810360008301526162e6816162aa565b9050919050565b7f45434453413a20696e76616c6964207369676e6174757265206c656e67746800600082015250565b6000616323601f83614b80565b915061632e826162ed565b602082019050919050565b6000602082019050818103600083015261635281616316565b9050919050565b7f45434453413a20696e76616c6964207369676e6174757265202773272076616c60008201527f7565000000000000000000000000000000000000000000000000000000000000602082015250565b60006163b5602283614b80565b91506163c082616359565b604082019050919050565b600060208201905081810360008301526163e4816163a8565b9050919050565b7f45434453413a20696e76616c6964207369676e6174757265202776272076616c60008201527f7565000000000000000000000000000000000000000000000000000000000000602082015250565b6000616447602283614b80565b9150616452826163eb565b604082019050919050565b600060208201905081810360008301526164768161643a565b9050919050565b600081519050919050565b600082825260208201905092915050565b60006164a48261647d565b6164ae8185616488565b93506164be818560208601614b91565b6164c781614bc4565b840191505092915050565b60006080820190506164e76000830187614c62565b6164f46020830186614c62565b6165016040830185614cf8565b81810360608301526165138184616499565b905095945050505050565b60008151905061652d81614a83565b92915050565b60006020828403121561654957616548614a4d565b5b60006165578482850161651e565b91505092915050565b7f4552433732313a206d696e7420746f20746865207a65726f2061646472657373600082015250565b6000616596602083614b80565b91506165a182616560565b602082019050919050565b600060208201905081810360008301526165c581616589565b9050919050565b7f4552433732313a20746f6b656e20616c7265616479206d696e74656400000000600082015250565b6000616602601c83614b80565b915061660d826165cc565b602082019050919050565b60006020820190508181036000830152616631816165f5565b9050919050565b600060ff82169050919050565b61664e81616638565b82525050565b60006080820190506166696000830187614dea565b6166766020830186616645565b6166836040830185614dea565b6166906060830184614dea565b9594505050505056fea264697066735822122070bc5196fac1ad9d40a2c93a87470c61412793004f442ff9baeea68db7b3d3e364736f6c634300080a00336080604052604051620022e2380380620022e2833981810160405281019062000029919062000668565b805182511462000070576040517f08c379a0000000000000000000000000000000000000000000000000000000008152600401620000679062000774565b60405180910390fd5b6000825111620000b7576040517f08c379a0000000000000000000000000000000000000000000000000000000008152600401620000ae90620007e6565b60405180910390fd5b60005b8251811015620001265762000110838281518110620000de57620000dd62000808565b5b6020026020010151838381518110620000fc57620000fb62000808565b5b60200260200101516200012f60201b60201c565b80806200011d9062000866565b915050620000ba565b50505062000b02565b600073ffffffffffffffffffffffffffffffffffffffff168273ffffffffffffffffffffffffffffffffffffffff161415620001a2576040517f08c379a000000000000000000000000000000000000000000000000000000000815260040162000199906200092a565b60405180910390fd5b60008111620001e8576040517f08c379a0000000000000000000000000000000000000000000000000000000008152600401620001df906200099c565b60405180910390fd5b6000600260008473ffffffffffffffffffffffffffffffffffffffff1673ffffffffffffffffffffffffffffffffffffffff16815260200190815260200160002054146200026d576040517f08c379a0000000000000000000000000000000000000000000000000000000008152600401620002649062000a34565b60405180910390fd5b6004829080600181540180825580915050600190039060005260206000200160009091909190916101000a81548173ffffffffffffffffffffffffffffffffffffffff021916908373ffffffffffffffffffffffffffffffffffffffff16021790555080600260008473ffffffffffffffffffffffffffffffffffffffff1673ffffffffffffffffffffffffffffffffffffffff168152602001908152602001600020819055508060005462000324919062000a56565b6000819055507f40c340f65e17194d14ddddb073d3c9f888e3cb52b5aae0c6c7706b4fbc905fac82826040516200035d92919062000ad5565b60405180910390a15050565b6000604051905090565b600080fd5b600080fd5b600080fd5b6000601f19601f8301169050919050565b7f4e487b7100000000000000000000000000000000000000000000000000000000600052604160045260246000fd5b620003cd8262000382565b810181811067ffffffffffffffff82111715620003ef57620003ee62000393565b5b80604052505050565b60006200040462000369565b9050620004128282620003c2565b919050565b600067ffffffffffffffff82111562000435576200043462000393565b5b602082029050602081019050919050565b600080fd5b600073ffffffffffffffffffffffffffffffffffffffff82169050919050565b600062000478826200044b565b9050919050565b6200048a816200046b565b81146200049657600080fd5b50565b600081519050620004aa816200047f565b92915050565b6000620004c7620004c18462000417565b620003f8565b90508083825260208201905060208402830185811115620004ed57620004ec62000446565b5b835b818110156200051a578062000505888262000499565b845260208401935050602081019050620004ef565b5050509392505050565b600082601f8301126200053c576200053b6200037d565b5b81516200054e848260208601620004b0565b91505092915050565b600067ffffffffffffffff82111562000575576200057462000393565b5b602082029050602081019050919050565b6000819050919050565b6200059b8162000586565b8114620005a757600080fd5b50565b600081519050620005bb8162000590565b92915050565b6000620005d8620005d28462000557565b620003f8565b90508083825260208201905060208402830185811115620005fe57620005fd62000446565b5b835b818110156200062b5780620006168882620005aa565b84526020840193505060208101905062000600565b5050509392505050565b600082601f8301126200064d576200064c6200037d565b5b81516200065f848260208601620005c1565b91505092915050565b6000806040838503121562000682576200068162000373565b5b600083015167ffffffffffffffff811115620006a357620006a262000378565b5b620006b18582860162000524565b925050602083015167ffffffffffffffff811115620006d557620006d462000378565b5b620006e38582860162000635565b9150509250929050565b600082825260208201905092915050565b7f5061796d656e7453706c69747465723a2070617965657320616e64207368617260008201527f6573206c656e677468206d69736d617463680000000000000000000000000000602082015250565b60006200075c603283620006ed565b91506200076982620006fe565b604082019050919050565b600060208201905081810360008301526200078f816200074d565b9050919050565b7f5061796d656e7453706c69747465723a206e6f20706179656573000000000000600082015250565b6000620007ce601a83620006ed565b9150620007db8262000796565b602082019050919050565b600060208201905081810360008301526200080181620007bf565b9050919050565b7f4e487b7100000000000000000000000000000000000000000000000000000000600052603260045260246000fd5b7f4e487b7100000000000000000000000000000000000000000000000000000000600052601160045260246000fd5b6000620008738262000586565b91507fffffffffffffffffffffffffffffffffffffffffffffffffffffffffffffffff821415620008a957620008a862000837565b5b600182019050919050565b7f5061796d656e7453706c69747465723a206163636f756e74206973207468652060008201527f7a65726f20616464726573730000000000000000000000000000000000000000602082015250565b600062000912602c83620006ed565b91506200091f82620008b4565b604082019050919050565b60006020820190508181036000830152620009458162000903565b9050919050565b7f5061796d656e7453706c69747465723a20736861726573206172652030000000600082015250565b600062000984601d83620006ed565b915062000991826200094c565b602082019050919050565b60006020820190508181036000830152620009b78162000975565b9050919050565b7f5061796d656e7453706c69747465723a206163636f756e7420616c726561647960008201527f2068617320736861726573000000000000000000000000000000000000000000602082015250565b600062000a1c602b83620006ed565b915062000a2982620009be565b604082019050919050565b6000602082019050818103600083015262000a4f8162000a0d565b9050919050565b600062000a638262000586565b915062000a708362000586565b9250827fffffffffffffffffffffffffffffffffffffffffffffffffffffffffffffffff0382111562000aa85762000aa762000837565b5b828201905092915050565b62000abe816200046b565b82525050565b62000acf8162000586565b82525050565b600060408201905062000aec600083018562000ab3565b62000afb602083018462000ac4565b9392505050565b6117d08062000b126000396000f3fe60806040526004361061008a5760003560e01c80638b83209b116100595780638b83209b146101905780639852595c146101cd578063ce7c2ac21461020a578063d79779b214610247578063e33b7de314610284576100d1565b806319165587146100d65780633a98ef39146100ff578063406072a91461012a57806348b7504414610167576100d1565b366100d1577f6ef95f06320e7a25a04a175ca677b7052bdd97131872c2192525a629f51be7706100b86102af565b346040516100c7929190610d97565b60405180910390a1005b600080fd5b3480156100e257600080fd5b506100fd60048036038101906100f89190610e03565b6102b7565b005b34801561010b57600080fd5b50610114610462565b6040516101219190610e30565b60405180910390f35b34801561013657600080fd5b50610151600480360381019061014c9190610eb5565b61046b565b60405161015e9190610e30565b60405180910390f35b34801561017357600080fd5b5061018e60048036038101906101899190610eb5565b6104f2565b005b34801561019c57600080fd5b506101b760048036038101906101b29190610f21565b6107ab565b6040516101c49190610f4e565b60405180910390f35b3480156101d957600080fd5b506101f460048036038101906101ef9190610f69565b6107f3565b6040516102019190610e30565b60405180910390f35b34801561021657600080fd5b50610231600480360381019061022c9190610f69565b61083c565b60405161023e9190610e30565b60405180910390f35b34801561025357600080fd5b5061026e60048036038101906102699190610f96565b610885565b60405161027b9190610e30565b60405180910390f35b34801561029057600080fd5b506102996108ce565b6040516102a69190610e30565b60405180910390f35b600033905090565b6000600260008373ffffffffffffffffffffffffffffffffffffffff1673ffffffffffffffffffffffffffffffffffffffff1681526020019081526020016000205411610339576040517f08c379a000000000000000000000000000000000000000000000000000000000815260040161033090611046565b60405180910390fd5b60006103436108ce565b4761034e9190611095565b905060006103658383610360866107f3565b6108d8565b905060008114156103ab576040517f08c379a00000000000000000000000000000000000000000000000000000000081526004016103a29061115d565b60405180910390fd5b80600360008573ffffffffffffffffffffffffffffffffffffffff1673ffffffffffffffffffffffffffffffffffffffff16815260200190815260200160002060008282546103fa9190611095565b9250508190555080600160008282546104139190611095565b925050819055506104248382610946565b7fdf20fd1e76bc69d672e4814fafb2c449bba3a5369d8359adf9e05e6fde87b05683826040516104559291906111dc565b60405180910390a1505050565b60008054905090565b6000600660008473ffffffffffffffffffffffffffffffffffffffff1673ffffffffffffffffffffffffffffffffffffffff16815260200190815260200160002060008373ffffffffffffffffffffffffffffffffffffffff1673ffffffffffffffffffffffffffffffffffffffff16815260200190815260200160002054905092915050565b6000600260008373ffffffffffffffffffffffffffffffffffffffff1673ffffffffffffffffffffffffffffffffffffffff1681526020019081526020016000205411610574576040517f08c379a000000000000000000000000000000000000000000000000000000000815260040161056b90611046565b60405180910390fd5b600061057f83610885565b8373ffffffffffffffffffffffffffffffffffffffff166370a08231306040518263ffffffff1660e01b81526004016105b89190610f4e565b602060405180830381865afa1580156105d5573d6000803e3d6000fd5b505050506040513d601f19601f820116820180604052508101906105f9919061121a565b6106039190611095565b9050600061061b8383610616878761046b565b6108d8565b90506000811415610661576040517f08c379a00000000000000000000000000000000000000000000000000000000081526004016106589061115d565b60405180910390fd5b80600660008673ffffffffffffffffffffffffffffffffffffffff1673ffffffffffffffffffffffffffffffffffffffff16815260200190815260200160002060008573ffffffffffffffffffffffffffffffffffffffff1673ffffffffffffffffffffffffffffffffffffffff16815260200190815260200160002060008282546106ed9190611095565b9250508190555080600560008673ffffffffffffffffffffffffffffffffffffffff1673ffffffffffffffffffffffffffffffffffffffff16815260200190815260200160002060008282546107439190611095565b92505081905550610755848483610a3a565b8373ffffffffffffffffffffffffffffffffffffffff167f3be5b7a71e84ed12875d241991c70855ac5817d847039e17a9d895c1ceb0f18a848360405161079d929190610d97565b60405180910390a250505050565b6000600482815481106107c1576107c0611247565b5b9060005260206000200160009054906101000a900473ffffffffffffffffffffffffffffffffffffffff169050919050565b6000600360008373ffffffffffffffffffffffffffffffffffffffff1673ffffffffffffffffffffffffffffffffffffffff168152602001908152602001600020549050919050565b6000600260008373ffffffffffffffffffffffffffffffffffffffff1673ffffffffffffffffffffffffffffffffffffffff168152602001908152602001600020549050919050565b6000600560008373ffffffffffffffffffffffffffffffffffffffff1673ffffffffffffffffffffffffffffffffffffffff168152602001908152602001600020549050919050565b6000600154905090565b600081600054600260008773ffffffffffffffffffffffffffffffffffffffff1673ffffffffffffffffffffffffffffffffffffffff16815260200190815260200160002054856109299190611276565b61093391906112ff565b61093d9190611330565b90509392505050565b80471015610989576040517f08c379a0000000000000000000000000000000000000000000000000000000008152600401610980906113b0565b60405180910390fd5b60008273ffffffffffffffffffffffffffffffffffffffff16826040516109af90611401565b60006040518083038185875af1925050503d80600081146109ec576040519150601f19603f3d011682016040523d82523d6000602084013e6109f1565b606091505b5050905080610a35576040517f08c379a0000000000000000000000000000000000000000000000000000000008152600401610a2c90611488565b60405180910390fd5b505050565b610abb8363a9059cbb60e01b8484604051602401610a59929190610d97565b604051602081830303815290604052907bffffffffffffffffffffffffffffffffffffffffffffffffffffffff19166020820180517bffffffffffffffffffffffffffffffffffffffffffffffffffffffff8381831617835250505050610ac0565b505050565b6000610b22826040518060400160405280602081526020017f5361666545524332303a206c6f772d6c6576656c2063616c6c206661696c65648152508573ffffffffffffffffffffffffffffffffffffffff16610b879092919063ffffffff16565b9050600081511115610b825780806020019051810190610b4291906114e0565b610b81576040517f08c379a0000000000000000000000000000000000000000000000000000000008152600401610b789061157f565b60405180910390fd5b5b505050565b6060610b968484600085610b9f565b90509392505050565b606082471015610be4576040517f08c379a0000000000000000000000000000000000000000000000000000000008152600401610bdb90611611565b60405180910390fd5b610bed85610cb3565b610c2c576040517f08c379a0000000000000000000000000000000000000000000000000000000008152600401610c239061167d565b60405180910390fd5b6000808673ffffffffffffffffffffffffffffffffffffffff168587604051610c55919061170c565b60006040518083038185875af1925050503d8060008114610c92576040519150601f19603f3d011682016040523d82523d6000602084013e610c97565b606091505b5091509150610ca7828286610cd6565b92505050949350505050565b6000808273ffffffffffffffffffffffffffffffffffffffff163b119050919050565b60608315610ce657829050610d36565b600083511115610cf95782518084602001fd5b816040517f08c379a0000000000000000000000000000000000000000000000000000000008152600401610d2d9190611778565b60405180910390fd5b9392505050565b600073ffffffffffffffffffffffffffffffffffffffff82169050919050565b6000610d6882610d3d565b9050919050565b610d7881610d5d565b82525050565b6000819050919050565b610d9181610d7e565b82525050565b6000604082019050610dac6000830185610d6f565b610db96020830184610d88565b9392505050565b600080fd5b6000610dd082610d3d565b9050919050565b610de081610dc5565b8114610deb57600080fd5b50565b600081359050610dfd81610dd7565b92915050565b600060208284031215610e1957610e18610dc0565b5b6000610e2784828501610dee565b91505092915050565b6000602082019050610e456000830184610d88565b92915050565b6000610e5682610d5d565b9050919050565b610e6681610e4b565b8114610e7157600080fd5b50565b600081359050610e8381610e5d565b92915050565b610e9281610d5d565b8114610e9d57600080fd5b50565b600081359050610eaf81610e89565b92915050565b60008060408385031215610ecc57610ecb610dc0565b5b6000610eda85828601610e74565b9250506020610eeb85828601610ea0565b9150509250929050565b610efe81610d7e565b8114610f0957600080fd5b50565b600081359050610f1b81610ef5565b92915050565b600060208284031215610f3757610f36610dc0565b5b6000610f4584828501610f0c565b91505092915050565b6000602082019050610f636000830184610d6f565b92915050565b600060208284031215610f7f57610f7e610dc0565b5b6000610f8d84828501610ea0565b91505092915050565b600060208284031215610fac57610fab610dc0565b5b6000610fba84828501610e74565b91505092915050565b600082825260208201905092915050565b7f5061796d656e7453706c69747465723a206163636f756e7420686173206e6f2060008201527f7368617265730000000000000000000000000000000000000000000000000000602082015250565b6000611030602683610fc3565b915061103b82610fd4565b604082019050919050565b6000602082019050818103600083015261105f81611023565b9050919050565b7f4e487b7100000000000000000000000000000000000000000000000000000000600052601160045260246000fd5b60006110a082610d7e565b91506110ab83610d7e565b9250827fffffffffffffffffffffffffffffffffffffffffffffffffffffffffffffffff038211156110e0576110df611066565b5b828201905092915050565b7f5061796d656e7453706c69747465723a206163636f756e74206973206e6f742060008201527f647565207061796d656e74000000000000000000000000000000000000000000602082015250565b6000611147602b83610fc3565b9150611152826110eb565b604082019050919050565b600060208201905081810360008301526111768161113a565b9050919050565b6000819050919050565b60006111a261119d61119884610d3d565b61117d565b610d3d565b9050919050565b60006111b482611187565b9050919050565b60006111c6826111a9565b9050919050565b6111d6816111bb565b82525050565b60006040820190506111f160008301856111cd565b6111fe6020830184610d88565b9392505050565b60008151905061121481610ef5565b92915050565b6000602082840312156112305761122f610dc0565b5b600061123e84828501611205565b91505092915050565b7f4e487b7100000000000000000000000000000000000000000000000000000000600052603260045260246000fd5b600061128182610d7e565b915061128c83610d7e565b9250817fffffffffffffffffffffffffffffffffffffffffffffffffffffffffffffffff04831182151516156112c5576112c4611066565b5b828202905092915050565b7f4e487b7100000000000000000000000000000000000000000000000000000000600052601260045260246000fd5b600061130a82610d7e565b915061131583610d7e565b925082611325576113246112d0565b5b828204905092915050565b600061133b82610d7e565b915061134683610d7e565b92508282101561135957611358611066565b5b828203905092915050565b7f416464726573733a20696e73756666696369656e742062616c616e6365000000600082015250565b600061139a601d83610fc3565b91506113a582611364565b602082019050919050565b600060208201905081810360008301526113c98161138d565b9050919050565b600081905092915050565b50565b60006113eb6000836113d0565b91506113f6826113db565b600082019050919050565b600061140c826113de565b9150819050919050565b7f416464726573733a20756e61626c6520746f2073656e642076616c75652c207260008201527f6563697069656e74206d61792068617665207265766572746564000000000000602082015250565b6000611472603a83610fc3565b915061147d82611416565b604082019050919050565b600060208201905081810360008301526114a181611465565b9050919050565b60008115159050919050565b6114bd816114a8565b81146114c857600080fd5b50565b6000815190506114da816114b4565b92915050565b6000602082840312156114f6576114f5610dc0565b5b6000611504848285016114cb565b91505092915050565b7f5361666545524332303a204552433230206f7065726174696f6e20646964206e60008201527f6f74207375636365656400000000000000000000000000000000000000000000602082015250565b6000611569602a83610fc3565b91506115748261150d565b604082019050919050565b600060208201905081810360008301526115988161155c565b9050919050565b7f416464726573733a20696e73756666696369656e742062616c616e636520666f60008201527f722063616c6c0000000000000000000000000000000000000000000000000000602082015250565b60006115fb602683610fc3565b91506116068261159f565b604082019050919050565b6000602082019050818103600083015261162a816115ee565b9050919050565b7f416464726573733a2063616c6c20746f206e6f6e2d636f6e7472616374000000600082015250565b6000611667601d83610fc3565b915061167282611631565b602082019050919050565b600060208201905081810360008301526116968161165a565b9050919050565b600081519050919050565b60005b838110156116c65780820151818401526020810190506116ab565b838111156116d5576000848401525b50505050565b60006116e68261169d565b6116f081856113d0565b93506117008185602086016116a8565b80840191505092915050565b600061171882846116db565b915081905092915050565b600081519050919050565b6000601f19601f8301169050919050565b600061174a82611723565b6117548185610fc3565b93506117648185602086016116a8565b61176d8161172e565b840191505092915050565b60006020820190508181036000830152611792818461173f565b90509291505056fea2646970667358221220e2b2b2176f30335a7d6efe63a7474fc7f396f411ce3400e22374808306324c0c64736f6c634300080a0033",
  "immutableReferences": {},
  "source": "// SPDX-License-Identifier: UNLICENSED\n\npragma solidity ^0.8.9;\n\nimport \"@openzeppelin/contracts/security/ReentrancyGuard.sol\";\nimport \"@openzeppelin/contracts/token/ERC721/ERC721.sol\";\nimport \"@openzeppelin/contracts/access/Ownable.sol\";\nimport \"@openzeppelin/contracts/utils/Counters.sol\";\nimport \"@openzeppelin/contracts/utils/Address.sol\";\nimport \"@openzeppelin/contracts/finance/PaymentSplitter.sol\";\nimport \"./EIP712Whitelisting.sol\";\n\ncontract EventDAO is ERC721, ReentrancyGuard, Ownable, EIP712Whitelisting {\n  using Counters for Counters.Counter;\n\n    /** MINTING **/\n  uint256 public MAX_PASS_CARD_PER_WALLET;\n  uint256 public MAX_VIP_CARD_PER_WALLET;\n  uint256 public VIP_CARD_PRICE;\n  uint256 public PASS_CARD_PRICE;\n  uint256 public MAX_PASS_CARD_SUPPLY;\n  uint256 public MAX_VIP_CARD_SUPPLY;\n  uint256 public MAX_SUPPLY;\n  uint256 public MAX_PASS_CARD_RESERVED_SUPPLY;\n  uint256 public MAX_VIP_CARD_RESERVED_SUPPLY;\n  uint256 public MAX_MULTIMINT;\n  uint256 public MAX_PASS_CARD_WHITELIST_SUPPLY;\n  uint256 public MAX_VIP_CARD_WHITELIST_SUPPLY;\n\n  PaymentSplitter private _splitter;\n\n  constructor (\n    string memory tokenName,\n    string memory tokenSymbol,\n    string memory customBaseURI_,\n    address[] memory payees,\n    uint256[] memory shares,\n    uint256 passCardPrice,\n    uint256 vipCardPrice\n   ) ERC721(tokenName, tokenSymbol) EIP712Whitelisting() {\n    customBaseURI = customBaseURI_;\n\n    _splitter = new PaymentSplitter(payees, shares);\n\n    PASS_CARD_PRICE = passCardPrice;\n    VIP_CARD_PRICE = vipCardPrice;\n    MAX_VIP_CARD_PER_WALLET = 1;\n    MAX_PASS_CARD_PER_WALLET = 2;\n\n    MAX_MULTIMINT = 3;\n\n    MAX_PASS_CARD_SUPPLY = 10000;\n    MAX_VIP_CARD_SUPPLY = 100;\n    MAX_PASS_CARD_RESERVED_SUPPLY = 1000;\n    MAX_VIP_CARD_RESERVED_SUPPLY = 10;\n    MAX_SUPPLY = MAX_PASS_CARD_SUPPLY + MAX_VIP_CARD_SUPPLY;\n\n    MAX_PASS_CARD_WHITELIST_SUPPLY = 9000;\n    MAX_VIP_CARD_WHITELIST_SUPPLY = 90;\n  }\n\n  /** ADMIN FUNCTIONS **/\n\n  bool public saleIsActive = false;\n  bool public whitelistSaleIsActive = true;\n\n  function flipSaleState() external onlyOwner {\n    saleIsActive = !saleIsActive;\n  }\n\n  function flipWhitelistSaleState() external onlyOwner {\n    whitelistSaleIsActive = !whitelistSaleIsActive;\n  }\n\n  function setPassCardPrice(uint256 price) external onlyOwner {\n    PASS_CARD_PRICE = price;\n  }\n\n  function setVipCardPrice(uint256 price) external onlyOwner {\n    VIP_CARD_PRICE = price;\n  }\n\n  function setVipCardLimitPerWallet(uint256 maxPerWallet) external onlyOwner {\n    MAX_VIP_CARD_PER_WALLET = maxPerWallet;\n  }\n\n  function setPassCardLimitPerWallet(uint256 maxPerWallet) external onlyOwner {\n    MAX_PASS_CARD_PER_WALLET = maxPerWallet;\n  }\n\n  function setMultiMint(uint256 maxMultiMint) external onlyOwner {\n    MAX_MULTIMINT = maxMultiMint;\n  }\n\n  function setMaxPassCardWhitelistSupply(uint256 maxSupply) external onlyOwner {\n    MAX_PASS_CARD_WHITELIST_SUPPLY = maxSupply;\n  }\n\n  function setMaxVipCardWhitelistSupply(uint256 maxSupply) external onlyOwner {\n    MAX_VIP_CARD_WHITELIST_SUPPLY = maxSupply;\n  }\n\n  /** MINTING LIMITS **/\n\n  mapping(address => uint256) private passCardMintCountMap;\n  mapping(address => uint256) private vipCardMintCountMap;\n\n  function allowedPassCardMintCount(address minter) public view returns (uint256) {\n    return MAX_PASS_CARD_PER_WALLET - passCardMintCountMap[minter];\n  }\n\n  function updatePassCardMintCount(address minter, uint256 count) private {\n    passCardMintCountMap[minter] += count;\n  }\n\n    function allowedVipCardMintCount(address minter) public view returns (uint256) {\n    return MAX_VIP_CARD_PER_WALLET - vipCardMintCountMap[minter];\n  }\n\n  function updateVipCardMintCount(address minter, uint256 count) private {\n    vipCardMintCountMap[minter] += count;\n  }\n\n  /** COUNTERS */\n\n  Counters.Counter private passCardSupplyCounter;\n  Counters.Counter private passCardReservedSupplyCounter;\n  Counters.Counter private vipCardSupplyCounter;\n  Counters.Counter private vipCardReservedSupplyCounter;\n  Counters.Counter private passCardWhitelistMintCounter;\n  Counters.Counter private vipCardWhitelistMintCounter;\n\n  function totalPassCardSupply() public view returns (uint256) {\n    return passCardSupplyCounter.current();\n  }\n\n  function totalPassCardReservedSupply() public view returns (uint256) {\n    return passCardReservedSupplyCounter.current();\n  }\n\n  function totalVipCardSupply() public view returns (uint256) {\n    return vipCardSupplyCounter.current();\n  }\n\n  function totalVipCardReservedSupply() public view returns (uint256) {\n    return vipCardReservedSupplyCounter.current();\n  }\n\n  function totalPassCardWhitelistMints() public view returns (uint256) {\n    return passCardWhitelistMintCounter.current();\n  }\n\n    function totalVipCardWhitelistMints() public view returns (uint256) {\n    return vipCardWhitelistMintCounter.current();\n  }\n\n  /** MINTING **/\n\n  function mintPassCard(uint256 count) public payable nonReentrant {\n    require(saleIsActive, \"Sale not active\");\n    require(totalPassCardSupply() + count - 1 < MAX_PASS_CARD_SUPPLY - MAX_PASS_CARD_RESERVED_SUPPLY, \"Exceeds max supply\");\n    require(count - 1 < MAX_MULTIMINT, \"Trying to mint too many at a time\");\n    require(msg.value >= PASS_CARD_PRICE * count, \"Insufficient payment\");\n\n    if (allowedPassCardMintCount(_msgSender()) > 0) {\n      updatePassCardMintCount(_msgSender(), count);\n    } else {\n      revert(\"Minting limit exceeded\");\n    }\n\n    for (uint256 i = 0; i < count; i++) {\n      passCardSupplyCounter.increment();\n      _safeMint(_msgSender(), MAX_PASS_CARD_RESERVED_SUPPLY + totalPassCardSupply());\n    }\n\n    payable(_splitter).transfer(msg.value);\n  }\n\n  function mintVipCard(uint256 count) public payable nonReentrant {\n    require(saleIsActive, \"Sale not active\");\n    require(totalVipCardSupply() + count - 1 < MAX_VIP_CARD_SUPPLY - MAX_VIP_CARD_RESERVED_SUPPLY, \"Exceeds max supply\");\n    require(count - 1 < MAX_MULTIMINT, \"Trying to mint too many at a time\");\n    require(msg.value >= VIP_CARD_PRICE , \"Insufficient payment\");\n\n    if (allowedVipCardMintCount(_msgSender()) > 0) {\n      updateVipCardMintCount(_msgSender(), count);\n    } else {\n      revert(\"Minting limit exceeded\");\n    }\n\n    for (uint256 i = 0; i < count; i++) {\n      vipCardSupplyCounter.increment();\n      _safeMint(_msgSender(), MAX_PASS_CARD_SUPPLY + MAX_VIP_CARD_RESERVED_SUPPLY + totalVipCardSupply());\n    }\n\n    payable(_splitter).transfer(msg.value);\n  }\n\n  function mintPassCardReserved(uint256 count) external onlyOwner {\n    require(totalPassCardReservedSupply() + count - 1 < MAX_PASS_CARD_RESERVED_SUPPLY, \"Exceeds max supply\");\n\n    for (uint256 i = 0; i < count; i++) {\n      passCardReservedSupplyCounter.increment();\n      _safeMint(_msgSender(), totalPassCardReservedSupply());\n    }\n  }\n\n  function mintPassCardReservedToAddress(uint256 count, address account) external onlyOwner {\n    require(totalPassCardReservedSupply() + count - 1 < MAX_PASS_CARD_RESERVED_SUPPLY, \"Exceeds max supply\");\n\n    for (uint256 i = 0; i < count; i++) {\n      passCardReservedSupplyCounter.increment();\n      _safeMint(account, totalPassCardReservedSupply());\n    }\n  }\n\n  function mintVipCardReserved(uint256 count) external onlyOwner{\n    require(totalVipCardReservedSupply() + count - 1 < MAX_VIP_CARD_RESERVED_SUPPLY, \"Exceeds max supply\");\n\n    for (uint256 i = 0; i < count; i++) {\n      vipCardReservedSupplyCounter.increment();\n      _safeMint(_msgSender(), MAX_PASS_CARD_SUPPLY + totalVipCardReservedSupply());\n    }\n  }\n\n  function mintVipCardReservedToAddress(uint256 count, address account) external onlyOwner{\n    require(totalVipCardReservedSupply() + count - 1 < MAX_VIP_CARD_RESERVED_SUPPLY, \"Exceeds max supply\");\n\n    for (uint256 i = 0; i < count; i++) {\n      vipCardReservedSupplyCounter.increment();\n      _safeMint(account, MAX_PASS_CARD_SUPPLY + totalVipCardReservedSupply());\n    }\n  }\n\n  function mintPassCardWhitelist(uint256 count, bytes calldata signature) public payable requiresWhitelist(signature) nonReentrant {\n    require(whitelistSaleIsActive, \"Sale not active\");\n    require(totalPassCardWhitelistMints() + count - 1 < MAX_PASS_CARD_WHITELIST_SUPPLY, \"Exceeds whitelist supply\");\n    require(totalPassCardSupply() < MAX_PASS_CARD_SUPPLY - MAX_PASS_CARD_RESERVED_SUPPLY + count - 1, \"Exceeds max supply\");\n    require(count - 1 < MAX_MULTIMINT, \"Trying to mint too many at a time\");\n    require(msg.value >= PASS_CARD_PRICE * count, \"Insufficient payment\");\n\n    if (allowedPassCardMintCount(_msgSender()) > 0) {\n      updatePassCardMintCount(_msgSender(), count);\n    } else {\n      revert(\"Minting limit exceeded\");\n    }\n\n    for (uint256 i = 0; i < count; i++) {\n      passCardSupplyCounter.increment();\n      passCardWhitelistMintCounter.increment();\n      _safeMint(_msgSender(), MAX_PASS_CARD_RESERVED_SUPPLY + totalPassCardSupply());\n    }\n\n    payable(_splitter).transfer(msg.value);\n  }\n\n  function mintVipCardWhitelist(uint256 count, bytes calldata signature) public payable requiresWhitelist(signature) nonReentrant {\n    require(whitelistSaleIsActive, \"Sale not active\");\n    require(totalVipCardWhitelistMints() + count - 1 < MAX_VIP_CARD_WHITELIST_SUPPLY, \"Exceeds whitelist supply\");\n    require(totalVipCardSupply() < MAX_VIP_CARD_SUPPLY - MAX_VIP_CARD_RESERVED_SUPPLY + count - 1, \"Exceeds max supply\");\n    require(count - 1 < MAX_MULTIMINT, \"Trying to mint too many at a time\");\n    require(msg.value >= VIP_CARD_PRICE * count, \"Insufficient payment\");\n\n    if (allowedVipCardMintCount(_msgSender()) > 0) {\n      updateVipCardMintCount(_msgSender(), count);\n    } else {\n      revert(\"Minting limit exceeded\");\n    }\n\n    for (uint256 i = 0; i < count; i++) {\n      vipCardSupplyCounter.increment();\n      vipCardWhitelistMintCounter.increment();\n      _safeMint(_msgSender(), MAX_PASS_CARD_SUPPLY + MAX_VIP_CARD_RESERVED_SUPPLY + totalVipCardSupply());\n    }\n\n    payable(_splitter).transfer(msg.value);\n  }\n\n  /** WHITELIST **/\n\n  function checkWhitelist(bytes calldata signature) public view requiresWhitelist(signature) returns (bool) {\n    return true;\n  }\n\n  /** URI HANDLING **/\n\n  string private customBaseURI;\n\n  function baseTokenURI() public view returns (string memory) {\n    return customBaseURI;\n  }\n\n  function setBaseURI(string memory customBaseURI_) external onlyOwner {\n    customBaseURI = customBaseURI_;\n  }\n\n  function _baseURI() internal view virtual override returns (string memory) {\n    return customBaseURI;\n  }\n\n  /** PAYOUT **/\n\n  function release(address payable account) public virtual onlyOwner {\n    _splitter.release(account);\n  }\n}",
  "sourcePath": "/media/cagiri/Files/Development/Workspaces/remix-workspace/eventdao/contracts/EventDao.sol",
  "compiler": {
    "name": "solc",
    "version": "0.8.10+commit.fc410830.Emscripten.clang"
  },
  "schemaVersion": "3.4.3",
  "updatedAt": "2022-03-13T18:10:22.922Z",
  "devdoc": {
    "kind": "dev",
    "methods": {
      "approve(address,uint256)": {
        "details": "See {IERC721-approve}."
      },
      "balanceOf(address)": {
        "details": "See {IERC721-balanceOf}."
      },
      "getApproved(uint256)": {
        "details": "See {IERC721-getApproved}."
      },
      "isApprovedForAll(address,address)": {
        "details": "See {IERC721-isApprovedForAll}."
      },
      "name()": {
        "details": "See {IERC721Metadata-name}."
      },
      "owner()": {
        "details": "Returns the address of the current owner."
      },
      "ownerOf(uint256)": {
        "details": "See {IERC721-ownerOf}."
      },
      "renounceOwnership()": {
        "details": "Leaves the contract without owner. It will not be possible to call `onlyOwner` functions anymore. Can only be called by the current owner. NOTE: Renouncing ownership will leave the contract without an owner, thereby removing any functionality that is only available to the owner."
      },
      "safeTransferFrom(address,address,uint256)": {
        "details": "See {IERC721-safeTransferFrom}."
      },
      "safeTransferFrom(address,address,uint256,bytes)": {
        "details": "See {IERC721-safeTransferFrom}."
      },
      "setApprovalForAll(address,bool)": {
        "details": "See {IERC721-setApprovalForAll}."
      },
      "supportsInterface(bytes4)": {
        "details": "See {IERC165-supportsInterface}."
      },
      "symbol()": {
        "details": "See {IERC721Metadata-symbol}."
      },
      "tokenURI(uint256)": {
        "details": "See {IERC721Metadata-tokenURI}."
      },
      "transferFrom(address,address,uint256)": {
        "details": "See {IERC721-transferFrom}."
      },
      "transferOwnership(address)": {
        "details": "Transfers ownership of the contract to a new account (`newOwner`). Can only be called by the current owner."
      }
    },
    "version": 1
  },
  "userdoc": {
    "kind": "user",
    "methods": {
      "MAX_PASS_CARD_PER_WALLET()": {
        "notice": "MINTING *"
      },
      "checkWhitelist(bytes)": {
        "notice": "WHITELIST *"
      },
      "mintPassCard(uint256)": {
        "notice": "MINTING *"
      },
      "release(address)": {
        "notice": "PAYOUT *"
      },
      "saleIsActive()": {
        "notice": "ADMIN FUNCTIONS *"
      }
    },
    "version": 1
  }
}